:100000000C94FF100C9411110C9411110C941111FB
:100010000C9411110C9411110C9411110C941111D8
:100020000C9411110C9411110C9411110C94D617FD
:100030000C9411110C9411110C9411110C941111B8
:100040000C9411110C9411110C9411110C941111A8
:100050000C9411110C9411110C9411110C94111198
:100060000C9411110C9411114090500241904802CF
:100070004002449038023002280220024A901802BE
:100080004C9047904E9010024F904290539008022F
:1000900000025790F801F001E801E001D801D00119
:1000A000C801C001B801B0016090A801A001980189
:1000B00090016490880180017801700168016001FD
:1000C000580150016E9048016F9062904001789005
:1000D0003801779030012801200118011001080132
:1000E0000001F800F000E80000000F110F05090002
:1000F000000012151D15120000000E1107110E0050
:10010000000010101E111E00000011111D131D0013
:10011000000018080E090E000000151515151F0126
:100120000000151515151F00000011110F01010029
:100130000000121212121F010000040E150E04001E
:1001400000001F040404040000001F11111111001D
:10015000000011111F1111000000111B15111100D9
:1001600000000709090911000000121418141200F8
:100170000A041113151911000000111315191100AB
:1001800000000E1106110E00000015150E151500C9
:100190000000060A0A0A1F1100001E1010101000AD
:1001A00000001E111E111E00030C101E11110E0066
:1001B0000F11110F050911001215151D151512004B
:1001C0000E11010701110E001010101E11111E005A
:1001D0001111111D13131D001808080E09090E0036
:1001E0001111111515151F011111111515151F00EC
:1001F0001111110F010101001212121212121F012E
:10020000040E1515150E04001111110F01110E0029
:100210001F11111111111100070909090909110014
:1002200015111113151911001111111315191100C0
:100230000E11010601110E001515150E15151500EC
:10024000060A0A0A0A0A1F111F10101010101000C7
:100250001F10101E11111E00B10CB50C38323005E4
:10026000C50CC10C3832300500007F02700200005E
:10027000C4CECF2E20CFD0CEC3D0C0CCCCDB00CECE
:10028000D1CD2E20CFD0CEC3D0C0CCCCDB00DDCBA7
:10029000C5CAD2D0CECD203500D7C0D1D2CED2CD96
:1002A000DBC920CFD0C8C1CED000205E2DC2CEC7C2
:1002B000C2D0C0D2007F8285888B8F9295989B9EFA
:1002C000A1A4A7AAADB0B3B6B8BBBEC1C3C6C8CBC4
:1002D000CDD0D2D5D7D9DBDDE0E2E4E5E7E9EBEC40
:1002E000EEEFF1F2F4F5F6F7F8F9FAFBFBFCFDFDA1
:1002F000FEFEFEFEFEFFFEFEFEFEFEFDFDFCFBFB27
:10030000FAF9F8F7F6F5F4F2F1EFEEECEBE9E7E5E0
:10031000E4E2E0DDDBD9D7D5D2D0CDCBC8C6C3C1AE
:10032000BEBBB8B6B3B0ADAAA7A4A19E9B98959248
:100330008F8B8885827F7C7976736F6C696663604A
:100340005D5A5754514E4B484643403D3B38363337
:10035000312E2C29272523211E1C1A19171513129B
:10036000100F0D0C0A09080706050403030201011A
:100370000000000000000000000000010102030373
:100380000405060708090A0C0D0F1012131517199A
:100390001A1C1E21232527292C2E313336383B3DAC
:1003A000404346484B4E5154575A5D606366696CF2
:1003B0006F7376797CD1D7C5D2D7C8CA20C8D1D2BD
:1003C000C5CA2100D1C1D0CED120CFD0CEC3D0C09C
:1003D000CCCCDB00C7C0C2C5D0D8C5CDC000CFD003
:1003E000CEC3D0C0CCCCC000CFD0C8C3CED2CEC23A
:1003F000D2C5D1DC2100D1D2C0D0D220CFD0CEC343
:10040000D0C0CCCCDB2C0036193519331931192C5E
:10041000190000411938193519314BC00C0000B1D1
:100420000CB50CB80C4132B80C413200007220D629
:100430001C741B9619E817C1132D12670FD80D2CC9
:100440000D710A2C07B1047A20EA1C7C1BA419F454
:1004500017D5133512770FE20D320D7D0A4007BD17
:10046000047E20F41C801BAB19FA17DF1339127FAE
:100470000FE70D350D830A4A07C3048620081D883F
:100480001BB9190618F31341128F0FF10D3B0D8F95
:100490000A5E07CF04D3216920C61C641B8A19DBBE
:1004A00017B2131D12580FCA0D1F0D640A1D070045
:1004B0000032005C0085003200320046001B0D094E
:1004C0001E1811A1065D062906A1053105DD040DE2
:1004D0000791064D061906910521050000FC1B0138
:1004E00000C05701006C330100D0070000A4B50024
:1004F00000483901001C250000D4300000201C00F9
:1005000000841C000060EA0000E8FD000024F40004
:100510000028040100880D0100DC3E030060100388
:1005200000CBC5D7C5CDC8C520C8CCCFCED2C5CD90
:1005300000FC1B0100C05701006C330100D0070014
:1005400000A4B5000048390100785D02001C2500B8
:10055000001027000070AD0000202F0100D43000F3
:1005600000201C000080260400C04B0300E8CB00E4
:10057000000839000028040100880D0100DC3E035A
:10058000006010030044CC030028A00000841C007D
:1005900000CBC5D7C5CD2E20CFD0CED1D2C0D2DB97
:1005A000004826000000190000FC1B0100C0570194
:1005B00000D0070000A4B5000048390100785D02B2
:1005C0000070AD0000202F01008026040060EA00CA
:1005D00000E8FD00000071020020BF0200C04B03D4
:1005E0000024F4000028040100880D0100F04902F5
:1005F00000DC3E0300601003000045010044CC0312
:1006000000280A0000841C00009001000000000087
:10061000000000000000000000DFC8D7CDC8CAC835
:100620002CCDC0D02ED42DC90030A70000FC1B015A
:1006300000D00700005E0100000E010000A4B5001C
:10064000009600000078000000AB030000C2CED18D
:10065000CFC0CBC5CDC8C520CCD3C64300FC1B0141
:1006600000C05701006C33010040420F00D007006A
:1006700000A4B5000048390100785D0200280A0096
:1006800000E0280100202F010028040100880D014E
:1006900000CCC5CDD1D2D02E20CDC0D0D3D8C5CDA1
:1006A00000FC1B01006C330100A4B50000483901B7
:1006B00000785D02001C25000070AD0000202F01B5
:1006C00000201C00008026040060EA0000E8FD0015
:1006D000000071020020BF0200C04B030020A107F0
:1006E0000024F40000E8CB000028040100880D017C
:1006F00000DC3E0300640000006010030030A7002F
:100700000044CC0300C40900006C010100C2CED13A
:10071000CFC0CBC5CDC8C520C6C5CDD100CFCECBAF
:10072000CEC2DBC520CFD0CEC1CB2E005C003F00B7
:10073000580242003F002C0178003F003C0032008C
:100740000D13021213040A13141E250ACB09B4094F
:1007500063090C09EC08B8085C08FC077407590A1F
:10076000170ABC09AB095809FC08E008A8084C089E
:10077000EC070000B8D300003CA50000D86C0100D5
:100780008CA0000058340000083301002CFB00004E
:10079000F4B00000ECDB00001482000000E1000077
:1007A000F80B010050AA000038760100781801000B
:1007B000E0EC0A009CB503007C633E0000320000C0
:1007C000F8E60200FC1B01003C6D0100109E0100D8
:1007D00034B101002CFB0000289A0100F8B70E008C
:1007E0005CB80E00888A0100C4800100D1D2C0D458
:1007F0002DD1D2D0C5CF2E20CEC1D9008852020033
:10080000D44301000C43010094240100F01D0100B9
:1008100054EC0000BC79010074210100984D0100E6
:10082000B0CC000030430000F86F0100D8A40000F5
:1008300044F700008CA00000F0EB0000DCE60000B4
:10084000284A0600D827000060860000D1D2C0D414
:100850002DD1D2D0C5CF2EC8CDD42E00400D03004F
:1008600088EE0100B459010050590100EC58010014
:100870008858010024580100C05701005C5701004E
:10088000F85601009456010030560100CC55010085
:10089000404B010048390100803801006C330100F1
:1008A00040320100FC1B0100D13AC1C0C7CEC2C01A
:1008B000DF20C8CDD4C5CA003C5A0000A05A0000B1
:1008C000CC0A0100C00C0100202F0100382B0100D0
:1008D000601C0100784A0100405E0200E4860D00C1
:1008E000D13ACFCDC5C2CCCECDC8DD00B83D0000D9
:1008F000F8430000F4FB0000E4380100D13ACFCD0A
:10090000C5C22ED1CCC5D82ED4CED00040420F00C7
:10091000B0A20700C8E40C0058D103009C380300C3
:1009200038DA0100C0570100C0570100144A010025
:100930006C330100202F01001C1F0100FC1B010073
:1009400040190100D001010056F40000A0F00000A1
:10095000A4B50000D0070000D13ACFC8CEC3C5CDA2
:10096000C5D100302A0000882C000024A90000B462
:10097000AA0000A0BE000024F400005C0C0100648A
:10098000450100EC58010048840100F8400D008446
:10099000640D00B0C30E00D0010100F01D01000481
:1009A00023010088260100702A0100D13ACCD3D25D
:1009B000C0CDD200F80B0100C49F0000D13ADDCDBC
:1009C000D2C5D0CECACECAD6C8CD00601C0100C0E8
:1009D00057010008330100201601000032000058C2
:1009E000340000788200000CAD0000FCD00000B89C
:1009F000D30000AC070100BC28020088520200F8B6
:100A0000E60200EC0D010058150100ECD50100C014
:100A10008F0000387C0000D13AC3C5CCCECBC8D201
:100A2000C8CAD3D10004A6000024A90000D4AD0098
:100A3000003C6D0100888A0100109E0100B8EF0C97
:100A40000084B20000A4B50000842F0100E82F014B
:100A50000038DA010000DB0100D13AC2C8D0C8C4B6
:100A6000C0CDD100D1D2D0C5CFD2CECACACECAC88D
:100A70000046005802320046003C003200110236A7
:100A800011141ED20CBA0CD40B850B250B9D0A1623
:100A90000DC20CAC0CC90B750B150B0000B8D300C4
:100AA000003CA50000D86C01008CA0000058340068
:100AB00000083301002CFB0000F4B00000ECDB0068
:100AC000001482000000E10000F80B010050AA00B1
:100AD000003876010078180100E0EC0A009CB503AC
:100AE000007C633E0000320000F8E60200FC1B01BF
:100AF000003C6D0100109E010034B101002CFB0090
:100B000000289A0100F8B70E005CB80E00888A0130
:100B100000C4800100D1D2C0D42DD1D2D0C5CF2EF7
:100B2000CEC1D92E0088520200D44301000C4301EB
:100B30000094240100F01D010054EC0000BC790178
:100B40000074210100984D0100B0CC00003043003A
:100B500000F86F0100D8A4000044F700008CA0004A
:100B600000F0EB0000DCE60000284A0600D8270071
:100B70000060860000D1D2C0D42DD1D2D0C5CF2EF6
:100B8000C8CDD42E0000770100FC1B010008330102
:100B900000F4B00000D808010048070100D8D600D2
:100BA0000034B10100A0A500005C700100289A018A
:100BB000002CFB0000A0F70300E0EC0A009CF90009
:100BC0000064A9010044450D00D43AC8CDD4C5CA7B
:100BD000D6C8DF00F8B70E0044450D00D8170B004B
:100BE000E0EC0A00A0F703009CB50300F8E6020061
:100BF00034B1010064A90100109E0100289A01008F
:100C0000888A01003C860100C48001000077010051
:100C1000387601005C700100D86C01005059010069
:100C200088580100C0570100F856010030560100F5
:100C3000084201006C33010008330100403201001A
:100C40000423010048200100601C0100FC1B01007E
:100C500078180100F80B0100D808010048070100CE
:100C6000BCFC000090FB00002CFB00009CF9000085
:100C7000A8F7000000E10000ECDB0000CCD8000089
:100C8000D8D60000B8D30000B8BA0000F4B0000015
:100C900050AA0000A0A500003CA500008CA0000008
:100CA000148200005834000000320000D43ACACE4A
:100CB000CCCFCBC5CAD1CDDBC9002CFB00004AFB91
:100CC0000000D43ACACEC0C32DCFCEC7C8D2C8C246
:100CD000CD0044450D00D8170B00289A01003C8632
:100CE00001005C700100E04101006C330100403202
:100CF00001000423010048200100601C0100FC1BCE
:100D00000100BCFC000090FB0000CCD80000B8BA89
:100D10000000A0A50000D43AC0D3D0C5D3D100D1E3
:100D2000D2C0D4C8CBCECACECACAC800850055002E
:100D30005802090E029B0D5B0D430DBF0D930D4B29
:100D40000D0000E8CB000008390000C2DBC2C5C4BA
:100D5000C5CDC8C520D2CECAD12E00E81C0000FCEB
:100D60001B0100C05701006C330100D00700008058
:100D7000A30400342100002823000048260000DCE2
:100D80001E000038180000B4140000E01500001820
:100D9000150000CFCEC4C0C3D0C000FC1B0100C0F2
:100DA0005701006C330100D00700004839010040B2
:100DB000420F00202F010008390000A4B50000C731
:100DC000C0CAC8D1CBC5CDC8C500CEC1CCC5CD2009
:100DD000C2C5D9C5D1D2C2005C0039008500C800A7
:100DE00039000D15090615170FB30E7F0E5D0EFDA8
:100DF0000D4B0F070FA30E750E510E0000FC1B01CB
:100E000000C05701006C330100D0070000A4B500FA
:100E1000001C25000070AD0000202F0100D4300020
:100E200000201C0000802604000071020020BF0288
:100E300000C04B03002C010000F049020084D802DE
:100E40000000450100D001010078050000D85900DC
:100E500000D1D2C5CDCECAC0D0C4C8DF008813002F
:100E60000024130000FC1B0100A4B50000102700A3
:100E700000A00F0000C3C8CFCED2CECDC8DF00582F
:100E80000200008025000064190000FC1B0100C066
:100E90005701006C330100A4B5000040420F00E888
:100EA000030000C3C8CFC5D0D2CECDC8DF20D5D077
:100EB000CECD00FC1B0100C05701006C330100D0F7
:100EC000070000A4B500001C25000070AD00002044
:100ED0002F0100D4300000201C00008026040000F8
:100EE00071020020BF0200C04B03002C010000F083
:100EF00049020084D8020000450100D001010078B9
:100F0000050000D8590000D1D2C5CDCECAC0D02E20
:100F100028C3D0D3C4DC00FC1B0100C05701006C07
:100F2000330100D0070000A4B5000040420F00804C
:100F30002604000071020020BF0200C04B03002005
:100F4000A10700F049020078050000C0D2C5D0CE4C
:100F5000D1CACBC5D0CEC700D1C5D0C4D6C52C20F0
:100F6000D1CED1D3C4DB004B0032003F0055005539
:100F700000420055006D001018130E0E120E0BCD1E
:100F8000115E110211BA1073101B10DD0FA10F0DAD
:100F900012BE114E11F210AB1063101510CD0F00E0
:100FA00000FC1B0100C05701006C330100D007009A
:100FB0000048390100785D020070AD0000202F016B
:100FC00000D430000084D8020080A30400CCC5C641
:100FD000D0C5C12E20CDC5C2D0C0CBC300DC1E0001
:100FE0000000190000B824000020030000E81C00E5
:100FF00000FC1B0100C05701006C3301004839019F
:1010000000785D0200E803000028040100880D015B
:1010100000C8320000C8D8C8C0D100FC1B0100C005
:101020005701006C330100A4B50000483901007875
:101030005D020070AD0000202F0100007102002051
:10104000BF0200C04B030020A10700E8CB0000084E
:10105000390000F049020064000000004501003042
:10106000A70000CFCED1CBC5CECFC5D0C0D6C8CE7D
:10107000CD2E00F41A00005E0100007A0D0000463B
:101080001E0000B20C000086240000802500005ADB
:101090000A0000F609000000190000E204000066E2
:1010A000080000501400008E120000C2CED1D1D230
:1010B000C0CDCEC2CBC5CDC8C500FC1B0100C057FA
:1010C00001006C330100A4B5000040420F00D007BE
:1010D000000048390100785D020070AD0000202F4B
:1010E0000100D430000084D8020080A30400E0286E
:1010F0000100C1CECBDC20D0C5C1D02ED1CFC8CD10
:10110000C000FC1B0100C05701006C330100A4B5F6
:10111000000048390100785D02001C2500006400D1
:101120000000202F01008026040060EA0000E8FD96
:1011300000000071020020BF020028040100F049F5
:10114000020080A3040044CC0300384A0000C2CE51
:10115000D1CFC0CBC5CDC8C520C7D3C12E00780024
:101160000000EA0100006400000040420F00D007C8
:10117000000032190000B61C000080250000501449
:101180000000FA00000014050000FC1B0100C0571D
:1011900001006C330100A4B5000048390100785DFE
:1011A00002002C010000F00A00008026040060EA22
:1011B0000000E8FD000024F40000A8610000C2CE99
:1011C000D1CF2E20D1D3D1D2C0C2CEC200F41A00CA
:1011D00000C21A0000B61C000066080000A8160035
:1011E000008C0A00004C1D0000F81100000E1F00CA
:1011F00000800C00004C040000881300007E0400F6
:1012000000D007000096000000EA010000C2CED125
:10121000CFC0CB2E2620C4D0C5CDC0C600C1CECBFA
:10122000DC2CC2CED1CFC0CBC5CDC8C50078004B19
:1012300000340032000A1017197A132B13BF124B17
:1012400012A2136B131B13AF120000841C0000FCCE
:101250001B0100C05701006C330100A4B50000E879
:10126000030000A00F0000D0070000C05D000010C8
:1012700027000048390100785D02001C250000703D
:10128000AD0000D4300000201C000060EA0000E83F
:10129000FD00000071020024F4000008390000F095
:1012A00049020084D80200A8610000E0AB0000CF32
:1012B000CED7C5D7CDC0DF20CDC5C4CED1D2009802
:1012C000210000FC1B0100C05701006C330100A489
:1012D000B5000048390100785D02001C250000704F
:1012E000AD0000202F0100D4300000201C00008041
:1012F00026040060EA0000E8FD0000007102002002
:10130000BF0200C04B030024F40000F04902008437
:10131000D802000CB4030000450100CCCED7C5D2E2
:10132000CED7CDC8CA20C2CED1CF00FC1B0100C091
:101330005701006C330100D0070000A4B50000483D
:10134000390100785D0200D0200000FC1B0100C0C4
:101350005701006C330100D0070000A4B50000481D
:10136000390100785D0200409C0000CCCED7C5C298
:10137000CEC920CFD3C7DBD0DC00FC1B01006C330F
:101380000100D0070000A4B5000048390100785DD5
:10139000020070AD0000202F0100004501008038E0
:1013A0000100CACECBC8CAC820CFD0CED4C8CBC0CB
:1013B000CA00CFCED7CAC82C20CCCED7C5C22ECF1C
:1013C0000032003C0032006D00320034004B00322D
:1013D000003F0046001C14180B1817101813115C5E
:1013E00017FC168C165216E21577152915B9145DDF
:1013F000140914CC174C17EC167E164216D3156937
:10140000151915A9144D140000FC1B0100C057014B
:10141000006C330100D007000048390100785D02FC
:101420000070AD0000202F01008026040060EA005B
:1014300000E8FD00000071020024F400002804010F
:1014400000880D0100F049020000450100CFC0CD29
:10145000CAD0C5C0D2C8D220C2D2CED000FC1B0197
:1014600000C05701006C330100D00700004839016B
:1014700000785D02001C25000070AD0000D4300033
:1014800000201C0000802604000071020020BF0222
:1014900000C04B0300F049020084D80200DC3E0388
:1014A0000000450100940B0100CAC8D1CBCED22E5A
:1014B000C6C5CB2ED1CECAC000FC1B0100C057014F
:1014C000006C330100D0070000A4B50000483901CA
:1014D00000785D02001C25000070AD0000202F0187
:1014E00000D4300000201C00008026040020BF0231
:1014F00000C04B030020A107000839000084D80277
:101500000000450100E0AB000044CC0300C8AF0080
:10151000007094000000000000C3C0D1D2D0CECA39
:10152000C0D0C4C8C0CBDCCD00347F0100E835009A
:101530000078370000244500007C47000008520076
:1015400000B8560000045B000050AA000098D000CC
:101550000088F400006C1A01002C460100CC5501F3
:1015600000CCF907006CC50A00CAC8D1D2DB2C2018
:10157000CAC0D0C8C5D100FC1B0100C05701006C17
:10158000330100D00700001C250000D430000020EB
:101590001C0000DC3E030060100300C8AF000040E8
:1015A0009C00006C01010048390100785D02007068
:1015B000AD0000802604000071020020BF0200C0C0
:1015C0004B0300F049020084D8020000450100945A
:1015D0000B0100C6C5CBD3C4CECA20CFD0CEC1CB61
:1015E0002E00FC1B0100C05701006C330100D00726
:1015F0000000A4B5000048390100785D02001C25F8
:10160000000070AD0000202F0100D4300000201C2D
:101610000000802604000071020020BF0200C04BC1
:10162000030020A107000839000084D8020000450B
:101630000100E0AB000044CC0300C8AF0000709490
:101640000000C2CED1CF2EC1D0DED8CD2ECFCECB92
:101650002E00603B00006086000024A9000058B105
:10166000000094F20000785D0200C0570100FC1BEE
:1016700001006C330100A4B5000020A10700C4C81C
:10168000C0D0C5DF2C20CACECBC8D200E05A0100A2
:10169000C0570100404B0100784A01009C44010002
:1016A000940B0100D8210100B81E01006C970100C5
:1016B000C070010078310100DCE6000080BB000052
:1016C0003CA50000FC8500006C840000C87D000083
:1016D0000045010030D90000A03B010098D0000077
:1016E000B0B30000A0A5000018600000DFC7C2C5AD
:1016F000CDCDC0DF20C1CECBC5C72E001437000032
:10170000A0BE000048520100D0B6000078310100B0
:1017100060030100F0EB00000C4900001CD4000045
:10172000DC2B0200B07B0100F82A0000F43300003B
:101730006C7E010094430000045B00008006010001
:1017400038C700009CAE0000B8880000D5D0CECDD0
:101750002EC7C0C12ECAC8D8C5D7CD00D00700003B
:1017600008390000E8CB0000FC1B01006C330100CD
:10177000C057010040420F00A4B50000F04902002C
:101780000071020020BF0200C04B0300802604004D
:1017900020A1070030A70000D0010100202F010088
:1017A000EA010000780000009600000064000000DC
:1017B000440200008601000076020000803801002B
:1017C000E8030000DC050000B0040000C2CED1CF69
:1017D000C0CBC5CDC8C520C6CAD200CFD0CEC1CBE4
:1017E000C5CCDB20C6CAD2002C0150003C00390019
:1017F0006D00B004040F14150B016A192219C818E2
:101800006418281814187A195E191819B818541879
:101810001818000050083400C8CCCCD3CDC8D2C5AD
:10182000D220D1D2C8CC2E00FC1B0100C057010031
:101830006C330100D0070000A4B500004839010056
:10184000785D02006400000070AD0000202F0100F0
:10185000F4010000CFD0CED1D2D3C4CDDBC520C798
:10186000C0C12E00FC1B0100C05701006C330100F9
:1018700048390100785D0200D4300000201C0000CF
:10188000E8CB0000A4B5000008390000F0490200D0
:10189000D00700006400000070AD0000202F0100A0
:1018A000E0AB000028040100880D0100DC3E0300CD
:1018B00060100300E02E0000C2CED1CFC0CBC5CD5A
:1018C000C8C520CDCED1C000E0DD0000E0AB0000F7
:1018D000B8D30000D0CF0000945601005847010053
:1018E00030240100E8CB00006823010020CB000079
:1018F000BC790100D42A0100001A04007C2A0900E6
:1019000034F00300509803005C460800304508009E
:1019100094450800CC440800CFCDC5C2CCCECDC87C
:10192000DF0004A6000014B4000064C800002426F0
:1019300001000C2A0100A8740100B0810000348568
:10194000000034B7000048BC00004CCC0000D82197
:1019500001006C33010084480100445B0100C3D0E6
:10196000C8CFCF2C20CED0C2C80096000000D00730
:101970000000EA01000030A70000C0CDD2C8C1C0FD
:10198000CAD22E20C3D0C8CFCF00C3D0C8CFCF2C4F
:1019900020CED0C2C800AB0058023F0050008500E6
:1019A0004B0055000702130F09100E411B301BD4CA
:1019B0001A8E1A5A1A0C1AC9195D1B381B201BCA19
:1019C0001A7E1A4C1A011A0000FC1B0100C05701B4
:1019D000006C330100A4B50000785D020070AD001A
:1019E00000202F0100802604000071020020BF02A9
:1019F00000E8CB0000083900006010030044CC036D
:101A000000CFC0D0C0C4CECDD2C8D2006C3301004C
:101A1000A4B50000785D0200E8CB000008390000A2
:101A2000F0490200FC1B0100C05701006C330100AB
:101A3000D0070000A4B50000483901006400000090
:101A400070AD0000202F0100E0AB0000CDCED12C06
:101A500020C8CDD4C5CAD6C8DF008C0A0000540BFC
:101A60000000FC1B0100C05701006C330100A4B54D
:101A7000000048390100785D0200202F0100C5C236
:101A8000D1D2C0D5C8C5C2DB20D2D0D3C100FC1B87
:101A90000100C05701006C330100D0070000483935
:101AA0000100785D020070AD0000202F010080264B
:101AB0000400C04B030020A10700640000001405CF
:101AC0000000103A010040320100CCC8CDC4C0CBA8
:101AD000C8CDDB00FC1B0100C05701006C330100C6
:101AE000A4B5000048390100785D02001C25000003
:101AF00064000000202F01008026040060EA00003E
:101B0000E8FD00000071020020BF0200280401006F
:101B1000F049020080A3040044CC0300384A0000CE
:101B2000C7D3C1DB20C2CED1CFC0CBC5CDC8C50085
:101B3000A4B50000D6B50000D1D2CECCC0D2C8D258
:101B400000A08C0000AC0D00009821000050140093
:101B500000C422000008200000FC210000C0CDC30A
:101B6000C8CDC000CDCED1CEC3CBCED2CAC02C20E2
:101B7000D0CED2003400960078003C0017080A143A
:101B80005A1C2A1CF21B921BB61C4A1C1A1CE21B74
:101B900000003C54010084CB0000A85B0100C4039A
:101BA000010044F700008CA00000201601003CBE9C
:101BB000000050C40400B4C40400BC6600005027F8
:101BC000010030430000C87D00001841010088A9D1
:101BD00000002CC90000185A0100003200007831C2
:101BE0000100C0CDD2C82DC0D1D2CCC0D2C8D7C57B
:101BF000D10030A70000A4B50000D0070000AB035F
:101C000000009600000064000000FC1B010076024A
:101C10000000E8030000F00A0000C1D0CECDD5C816
:101C2000D220C0D1D2CCC0D22E00FC1B0100C057A4
:101C300001006C330100A4B5000040420F0020A158
:101C400007002C010000E8800000C0CDD2C8C0CB46
:101C5000CBC5D0C3C8D72E203200100E000002081A
:101C60000000082000004E0C00004E250000D0208F
:101C70000000B61C0000A8160000BE230000841C53
:101C80000000C6160000E20400004C1D00005019C0
:101C90000000A60E0000DA160000441600007E04C4
:101CA00000001A1D0000E6140000A40600007017D2
:101CB0000000BE0A0000C0CDD2C8C0CBCBC5D0C387
:101CC000C8D72E203100C0CBCBC5D0C3C8DF2C2055
:101CD000C0D1D2CCC00032003C00320032003C0007
:101CE0003F0078006D00F00085001C14261A1413C4
:101CF0000A0B0509E91F921FEC1E761E1E1EC91D48
:101D00009C1D661D4B1D1E1D5920E21F841FDE1EDB
:101D10006E1E151EC41D921D5F1D421D0000FC1B82
:101D20000100C05701006C330100A4B50000483920
:101D30000100785D020020A1070064000000D001CE
:101D40000100D4D3D0D3CDCAD3CB00102700007468
:101D50000E0000FC1B01006C33010040420F00C369
:101D6000D0C8C1CECA00FC1B01008026040000714F
:101D7000020020BF0200C04B030028040100880DB0
:101D80000100F0490200DC3E03006010030044CC77
:101D90000300C1CED0CEC4C0C2CAC800FC1B010023
:101DA000C05701006C330100A4B500008026040078
:101DB0000071020020BF0200C04B030020A10700F9
:101DC000F0490200C0CACDDD00FC1B0100C0570174
:101DD000006C330100D0070000A4B50000483901B1
:101DE00000785D02001C25000070AD0000D43000BA
:101DF00000201C000060EA0000E8FD000024F40060
:101E00000084D802000045010030A70000D0010185
:101E10000020A10700CCC5CDC8CDC3C8D2008C819D
:101E200001001431010098D00000D86C0100F85670
:101E300001000833010030560100E848010028681D
:101E4000010040CE000080570000647D0000F8D9FA
:101E5000000078820000ECDB00003453000054BA2C
:101E6000000088DB0000D47B0000D8400000C3C520
:101E7000CFC0D2C8D200201C0000D8A4000058E374
:101E800000006C330100E08C0100F8630300F8BA35
:101E90000100386300008C8101002881010060800E
:101EA0000100987F0100D07E0100787C0100B062C3
:101EB0000100E8610100F8560100305601000455A8
:101EC00001003C54010048520100E45101008051DE
:101ED00001001C51010054500100E82F0100C4D042
:101EE000CEC6C62E20C3D0C8C1CECA00601C010019
:101EF000C05701004032010040B50000185A0100EF
:101F0000B8A100003863000060860000CCAD03007B
:101F1000647D0000CCD80000F86F0100A4830000AD
:101F2000382B01001CC80200B0CC00001892000041
:101F30003C220100903300004852010008E80000F4
:101F4000B83D000000C800005CF30000582E0100FE
:101F5000E08C0100B8560000885E0000B4DC000090
:101F600040E700005CF3000068230100746C01008E
:101F700068B901002CC30100B408020004CC0200BF
:101F800028C70600CFCBC5D1CD2E20C3D0C8C1CE27
:101F9000CA00A4B50000143700009C950000C8AF2B
:101FA0000000B4F50000FC1B0100C05701006C33B9
:101FB0000100D007000048390100785D020080264A
:101FC00004000071020020BF0200C04B0300F04972
:101FD000020084D8020010270000204E0000A086D6
:101FE0000100C3C5D0CFC5D100FC1B0100C0570103
:101FF000006C330100D0070000A4B500004839018F
:1020000000785D02001C25000070AD0000202F014B
:1020100000D4300000201C000060EA0000E8FD0051
:10202000000071020024F4000028040100880D0162
:1020300000F049020084D8020000450100E0AB0036
:102040000030A70000D0010100E0280100C8AF0067
:10205000007011010050C30000C0CDD2C82DC8CD02
:10206000D4C5CAD6C8CECDCD00C8CDD4C5CAD6C871
:10207000C800F000F00032003C0005052314AF2139
:102080008B21EF209020C3219F217B21E0200000A5
:1020900088520200D44301000C4301009424010043
:1020A000F01D010054EC0000BC7901007421010016
:1020B000984D0100B0CC000030430000F86F0100E3
:1020C000D8A4000044F700008CA00000F0EB000052
:1020D000DCE60000284A0600D827000060860000E1
:1020E000C0CDD2C8CFC0D0C0C7C8D22E2046004075
:1020F000420F0020A1070070BB060080260400806C
:10210000A903000039030020D80200785D020040D6
:10211000130200C0570100984D01008038010040B3
:102120003201005C250100F01D0100601C0100204F
:10213000160100C00C01004CFE000090FB0000B036
:10214000CC0000A4B50000A8AC0000D8A400007822
:10215000820000C05D0000603B000000320000D43F
:10216000300000E02E0000C02B0000802500002081
:102170001C000000190000D0070000C0CDD2C8CF5D
:10218000C0D0C0C72E20CEC1D92E000071020000E1
:10219000000000007102000000000000710200C099
:1021A000CDD2C8CFC0D0C0C7C8D22E31463600C0AD
:1021B000C62D0000000000C0C62D0000000000C0B9
:1021C000C62D00C0CDD2C8CFC0D0C0C7C8D22E3314
:1021D000304600C0CDC8D2CFC0D0C0C7C8D2C0D052
:1021E000CD2E0000005A1053115A1272139A14D4B3
:1021F0001520178018091AE01A221DDE1E0011246E
:102200001FBECFEFD8E0DEBFCDBF21E0A0E0B1E040
:1022100001C01D92A035B207E1F70E94A9140C94E9
:10222000E6190C940000CF938FE40E94E41780918C
:10223000C00087FFFCCF0E94D917C82F8FE40E94EF
:10224000E4178091C00087FFFCCF0E94D917C29588
:10225000C07F8C2BCF910895CF93DF93C0E0D0E067
:10226000CE010E94B419882351F094E0899FC00DDB
:10227000D11D11246396CF3F83E0D80788F3CE01A8
:10228000DF91CF910895EF92FF920F931F93CF9319
:10229000DF939EE0E92E91E0F92EC0E0D0E000E06F
:1022A00010E0C8010E94B419882399F02196980182
:1022B0002F5F3F4FF701219331937F01F4E08F9F10
:1022C000000D111D11240D5E1F4F0F3F83E01807F5
:1022D00040F3CC0FDD1FC25FDE4F198218828EE003
:1022E00091E0DF91CF911F910F91FF90EF900895B2
:1022F0000F931F93CF93DF93082F10E0C0E0D0E03F
:10230000CE010E94B419882389F0101769F01F5F6D
:1023100094E0899FC00DD11D11246396CF3F83E0C7
:10232000D80770F380E002C0CE0101C090E0DF91D9
:10233000CF911F910F9108950E94781101960895F1
:102340000E94781140960C94C2190E9478110C9446
:10235000B4190E947811439608950E94781142960C
:102360000C94B419CF93DF930E947811EC0162961C
:10237000CE010E94B41981118150682FCE01DF91E6
:10238000CF910C94C819AF92BF92CF92DF92EF9287
:10239000FF920F931F93CF93DF930E942C11EC01B8
:1023A0000E94EB178FE40E94E4172FEF89E698E173
:1023B000215080409040E1F700C000008091C000B3
:1023C00087FF8CC00E94D9178F34910509F086C011
:1023D0000E941311833509F07AC00E941311E82E70
:1023E00084E0E89E900111242E5E3F4F8FEF93E032
:1023F0008C1B9D0B2817390724F082E50E94E417F7
:102400006DC08FE40E94E4178E010F5F1F4F6E2D89
:10241000CE010E94C8196E0190E1C90ED11C0E9424
:10242000131158012FEFA21AB20A682FC8010E9497
:10243000C8198501AC14BD0491F70E941311682FCF
:10244000C5010E94C8190E941311682FCE01419640
:102450000E94C8190E9413118E010D5E1F4F682F34
:10246000CE0142960E94C819E801F12CFE14F1F049
:102470000E941311682FCE010E94C8190E941311E7
:10248000682FCE0101960E94C8190E941311682F6F
:10249000CE0102960E94C8190E941311682FCE0126
:1024A000039624960E94C819F394E0CFE80184E0D3
:1024B000F89EC00DD11D11240E941311682FCE016A
:1024C0000E94C8190E941311682FCE0105C08334E1
:1024D00029F460E080E090E00E94C819DF91CF917C
:1024E0001F910F91FF90EF90DF90CF90BF90AF9032
:1024F0000C94FB173A9839983B98429A419A439A20
:10250000089586B1982F947082FF02C080E018C0B1
:10251000809102018823D1F380910101319B07C092
:102520008F5F823039F41092010182E009C081503E
:102530008E3F19F080930101E9CF1092010181E0F3
:102540009093020190910001339B0AC0993C20F4C2
:10255000963018F084E001C085E0109200010895E3
:102560009F5F90930001089586B183FB882780F9CF
:1025700091E0892708958091BC0087FFFCCF0895E2
:1025800084EA8093BC000C94BB128093BB0084E867
:102590008093BC000C94BB12CF93C82F0E94C01232
:1025A0008EE40E94C5128C2F88600E94C51284E9B7
:1025B0008093BC00CF9108952FEF89E698E12150D8
:1025C00080409040E1F700C0000087B1806387B988
:1025D00088E48093B8000895CF93C82F0E94CC124E
:1025E0008C2F84600E94CC1285E08A95F1F7000060
:1025F0008C2F8B7F0E94CC1285E08A95F1F700002A
:10260000CF910895CF93C82F807F81600E94EC12F4
:1026100020E1C29FC001112481600E94EC1287EC6E
:1026200090E00197F1F700C00000809104018F5FF6
:1026300080930401CF910895CF93C82F807F0E948B
:10264000EC128C2F8295807F0E94EC1287EC90E038
:102650000197F1F700C00000CF9108950E94DC12AD
:102660002FEF89EF90E0215080409040E1F700C0CB
:10267000000080E30E94EC128FE19EE40197F1F7E5
:1026800000C0000080E30E94EC1287E592E0019711
:10269000F1F700C0000080E30E94EC1287E592E0B1
:1026A0000197F1F700C0000080E20E94EC1288E27E
:1026B0000E941C138CE00C941C1381E00E941C13DC
:1026C0008FE39FE10197F1F700C000001092030132
:1026D000109204010895CF93DF93C82FCF70D62FA7
:1026E000D17060FD02C080E001C080E48C0F806882
:1026F0000E941C13C0930401D0930301DF91CF917A
:1027000008950F931F93CF93DF938B01877028E079
:10271000829FC001112480640E941C13C0E0D0E09D
:10272000F801EC0FFD1F84910E9402132196C8301E
:10273000D105B1F780910401885080930401609124
:102740000301DF91CF911F910F910C946B13CF93E5
:10275000DF93EC016330F9F028F46130B1F16230BD
:1027600039F13DC0643051F06530C9F560E177E280
:102770000E94BD1880E3860F0E940213CE0168EE0E
:1027800073E00E94BD18CB016AE070E00E94BD18A2
:10279000805D0E940213CE0164E670E00E94BD18C5
:1027A000CB016AE070E00E94BD18805D0E940213B8
:1027B0002AE030E0CE01B9010E94BD18CB01B90179
:1027C0000E94BD18805D0E940213CE016AE070E095
:1027D0000E94BD18805DDF91CF910C940213DF91B0
:1027E000CF910895CF93DF93EC01662359F060E118
:1027F0007EE00E94BD18CB0162E00E94A7138AE32D
:102800000E9402132CE330E0CE01B9010E94BD18F2
:10281000EC01CB01B9010E94BD1862E00E94A71330
:102820008AE30E94021362E0CE01DF91CF910C9403
:10283000A713E6E0F1E01782168215821482138254
:10284000128211821082109205010C945D13982F50
:10285000883AC1F1883BC1F1803C10F4892F15C042
:10286000E82FF0E0EE0FFF1FE851F1406591749101
:10287000611580E9780718F081E0860F06C0E6E070
:10288000F1E080E02191921302C00C9402138F5F5B
:102890008830C1F780910501E82FF0E0EA5FFE4F34
:1028A00090830E9481138091050191E0980F90938D
:1028B00005010E94021380910501883038F01092C2
:1028C0000501089595E4CACF95E6C8CF0895CF9342
:1028D000DF93EC018991882319F00E942714FACF25
:1028E000DF91CF910895CF93DF93FC018491EF01A5
:1028F0002196882321F00E942714FE01F7CFDF9153
:10290000CF9108950F931F93CF93C0E1C15059F019
:102910008C010F5F1F4F0E94B419882321F00E9481
:102920002714C801F3CFCF911F910F9108950E94F2
:102930005D1389E992E00E94731461E080E00E94D7
:102940006B138EE892E00E94731488E592E00C9479
:1029500087188FEF8AB98FE78BB90E94C3110E9445
:102960002E130E94971462E08AE692E00E944B15B3
:10297000882319F0813009F12DC062E085E994E0E7
:102980000E944B15C82F8F3F89F0E82FF0E0EE0F23
:10299000FF1FE558FB4F8591949162E00E944B1513
:1029A0008F3F21F042E0682F8C2F11C064EF71E05F
:1029B00080E793E00E947518D6CF0E94431163E030
:1029C0000E944B158F3F91F343E0682F80E00E94F7
:1029D000E816C9CF64EF71E08CED90E00E947518A5
:1029E0002FEF89E698E1215080409040E1F700C048
:1029F0000000B9CFEF92FF920F931F93CF93DF9315
:102A00007C01C62F042F0E941914D0E010E0612F22
:102A100081E00E946B13023081F00330E1F001305D
:102A200029F5FE01EE0FFF1FEE0DFF1D8081918144
:102A3000009761F00E94671419C0FE01EE0FFF1F9E
:102A4000EE0DFF1D85919491009711F48AEA92E0B2
:102A50000E9473140BC0FE01EE0FFF1FEE0DFF1D51
:102A600080819181009791F30E9482141F5F2196CB
:102A7000123069F6DF91CF911F910F91FF90EF9087
:102A80000895CF93C62F682F80E00E946B138C2F80
:102A9000CF910C940213CF92DF92EF92FF920F939B
:102AA0001F93CF93DF9310E0623059F4FC01E10FE4
:102AB000F11DE10FF11D25913491232B69F01F5F6A
:102AC000F5CFFC01E10FF11DE10FF11D20813181F6
:102AD000232B11F01F5FF5CF112309F48AC0E62ED6
:102AE000F92E082F0E947A124E2D60E0802F9F2D24
:102AF0000E94FA14C0E0D0E0C12ED12C8FE19EE4F8
:102B00000197F1F700C000000E948112823089F025
:102B10008430E1F0813071F560E570E08CED90E09B
:102B20000E94751860E28C2F8D1B0E944115CF5FAB
:102B300021C060E570E08CED90E00E94751860E2C5
:102B40008C2F8D1B0E944115C15014C060E570E0B0
:102B50008CED90E00E94751860E48C2F8D1B0E9414
:102B600041158C2F0C2E000C990B8C159D0509F02E
:102B700041C03FC08C2F0C2E000C990BC816D906F3
:102B80006CF44E2D60E0802F9F2D0E94FA146EE3AE
:102B900080E00E944115C0E0D0E0B0CFC7FF04C084
:102BA000C12FDFEFD10F09C02D2F30E0A9014E5FFB
:102BB0005F4F8417950751F4DF5F4E2D6D2F802FE7
:102BC0009F2D0E94FA146EE381E010C082179307D4
:102BD00054F4D1504E2D6D2F802F9F2D0E94FA144A
:102BE0006EE380E003C06EE38C2F8D1B0E944115C5
:102BF00085CFCFEF8C2FDF91CF911F910F91FF9059
:102C0000EF90DF90CF9008950F931F93CF93DF93B2
:102C10008C01EB0161E080E00E946B1361E0CE016A
:102C2000801B910B0E94F21361E089E00E946B13FC
:102C30009801A4E6B0E00E9412199E0140E050E025
:102C40000E94D11862E0C9010E94A71385E2DF91BA
:102C5000CF911F910F910C9402131F93CF93DF9389
:102C6000EC01162F0E94191486EF93E00E94731452
:102C700061E080E00E946B1388EE93E00E94731481
:102C80008FE194E00E9487180E941914CE0112303F
:102C900019F40E94731402C00E94821483E194E02C
:102CA000DF91CF911F910C9487182FEF89E698E15F
:102CB000215080409040E1F700C000000E941914AC
:102CC0008EED93E00E94731461E080E00E946B132C
:102CD00084ED93E00E94731483E194E00C948718D0
:102CE0000E94191484EC93E00E94731483E194E031
:102CF0000C9487180E94191485EB93E00E947314BA
:102D000087E094E00C9487188FEF8AB9A0E0B2E0D6
:102D1000FD01EB54FF4FE491ED93A11583E0B8075B
:102D2000B9F70895AF92BF92CF92DF92EF92FF92E0
:102D30000F931F932DE02093810023E234EF309313
:102D400089002093880022E020936F001092850074
:102D500010928400789420E030E040E052E30E943A
:102D600021193E504A4F554D6E4F7F4F8F4F9F4F09
:102D7000A12CE4EEBE2EFBE0CF2EA4E5DA2EB2E0CD
:102D8000EB2EF12C00E010E00E944E19B901CA01AF
:102D90001F910F91FF90EF90DF90CF90BF90AF9079
:102DA0000895F89410926F0010928500109284009C
:102DB000109281008FE78BB90895F2E0EE27222769
:102DC0003327260F371FE81F40814BB9FACF0895EC
:102DD0004F925F926F927F928F929F92AF92BF922B
:102DE000CF92DF92EF92FF920F931F93CF93DF93D7
:102DF000162F442E22E0421330C070E0AB01440F86
:102E0000551F282F30E0220F331FF901EF59FB4FD8
:102E100085919491FA01E80FF91FC591D491F901B8
:102E2000E35DFB4F85919491FA01E80FF91F6590DE
:102E30007490F901E95BFB4F85919491FB01E80FD8
:102E4000F91F549025583B4FF90185919491FA014F
:102E5000E80FF91F859194912BC0862F0E94AD1128
:102E6000811112C0DF91CF911F910F91FF90EF90D0
:102E7000DF90CF90BF90AF909F908F907F906F909A
:102E80005F904F900C947A168D3F18F4812F0E941A
:102E9000B211812F0E94A911EC01812F0E94A01173
:102EA0003C01812F0E94A511582E812F0E949C1158
:102EB0002CEF6222569C6001579CD00C1124642D8B
:102EC0000E942D16B60180E090E00E9404160E9438
:102ED00084165A9400E010E09FEF591609F452C08E
:102EE000852D90E022E042120FC0FC01EE0FFF1F83
:102EF000EE0FFF1FEC0FFD1F4591559165917491E9
:102F0000342F252FCB010AC0880F991F880F991FD6
:102F10008C0F9D1F0E94BC19362F272F632F722FF5
:102F20000E9492164B015C017301E114F10431F12E
:102F3000C501B4010E94DD160E94B4128823A1F0DD
:102F40000E94D116DF91CF911F910F91FF90EF90CA
:102F5000DF90CF90BF90AF909F908F907F906F90B9
:102F60005F904F900C94701684E0E81AF1080C5FA3
:102F70001F4FB601C8010E940416D7CF0E94D11678
:102F80005A94AACF0E94D116DF91CF911F910F9131
:102F9000FF90EF90DF90CF90BF90AF909F908F9079
:102FA0007F906F905F904F900C9455169F919F91DA
:102FB00018958091C00087FF04C08091C60090E002
:102FC00008958FEF9FEF08959091C00095FFFCCF7B
:102FD0008093C60008951092C50080E18093C400DC
:102FE000E0ECF0E0808182608083E1ECF0E08081C1
:102FF0008861808308951092C100F89408959C011F
:1030000040E050E060E072E18AE790E00E94F3184F
:10301000213081E03807410551050CF44DC0F3E043
:103020005695479537952795FA95D1F7213081E048
:1030300038074105510508F441C0E2E0569547952F
:1030400037952795EA95D1F7213081E0380741057A
:103050005105B0F15695479537952795213081E078
:1030600038074105510570F15695479537952795D5
:10307000213081E038074105510530F156954795DB
:1030800037952795213081E038074105510548F0F3
:1030900082E056954795379527958A95D1F787E031
:1030A00001C086E0239A21502093B30092E49093CC
:1030B000B0008093B100089581E0F4CF82E0F2CFB8
:1030C00083E0F0CF84E0EECF85E0ECCF1092B0004B
:1030D0002B980895009741F0EFE9FFE03197F1F761
:1030E00000C000000197F6CF0895CF93DF93EB0166
:1030F000009711F00E94FF17CE010E946A180E94EB
:10310000661885E090E0DF91CF910C946A181F93C8
:10311000CF93DF931AE0FC0125913491EC012296C4
:103120002115310531F1F901EF70FF27EE0FFF1F77
:10313000ED51FE4D85919491A901440F452F441FF7
:10314000550B5195149FB001159F700D1124E4E0AB
:1031500036952795EA95E1F7209530952770332726
:1031600002C0969587952A95E2F70E947518CE01C0
:10317000D2CFDF91CF911F910895AA1BBB1B51E1C4
:1031800007C0AA1FBB1FA617B70710F0A61BB70BD7
:10319000881F991F5A95A9F780959095BC01CD017C
:1031A0000895A1E21A2EAA1BBB1BFD010DC0AA1F88
:1031B000BB1FEE1FFF1FA217B307E407F50720F0A0
:1031C000A21BB30BE40BF50B661F771F881F991F1B
:1031D0001A9469F760957095809590959B01AC0164
:1031E000BD01CF010895052E97FB1EF400940E94A7
:1031F0000A1957FD07D00E94D11807FC03D04EF4DE
:103200000C940A1950954095309521953F4F4F4F9A
:103210005F4F089590958095709561957F4F8F4F82
:103220009F4F0895A29FB001B39FC001A39F700D4F
:10323000811D1124911DB29F700D811D1124911DBE
:103240000895E894DF93CF93FC01DB010E941219EB
:103250007F936F93E9019A01AC01BF93AF933F93C2
:103260002F93DF010E94121926F46C1B7D0B820B39
:10327000930B9E01EB01FC010E94AB19AF91BF9132
:103280002F913F910E94AB19BE01CF01F9012F91FF
:103290003F91CF91DF910895689401C0E8948F9297
:1032A0009F92CF93DF930E945A19DF91CF919F9005
:1032B0008F90089588249924F401E401B0E49F9349
:1032C000AA279A158B049C04ED05FE05CF05D007AF
:1032D000A10798F4AD2FDC2FCF2FFE2FE92D982CCE
:1032E000892E982F872F762F652F542F432F322F1B
:1032F0002227B85031F7BF9127C01B2EBF91BB27A3
:10330000220F331F441F551F661F771F881F991FE9
:10331000881C991CEE1FFF1FCC1FDD1FAA1FBB1F9F
:103320008A149B04EC05FD05CE05DF05A007B10757
:1033300048F08A189B08EC09FD09CE09DF09A00BAB
:10334000B10B21601A94E1F62EF49401AF01BE0195
:10335000CD01000C08950E941219460F571FC81F77
:10336000D91F08F431960895F999FECF92BD81BD19
:10337000F89A992780B50895A6E1B0E044E050E0BE
:103380000C94D819A8E1B0E042E050E00C94D819B0
:10339000262FF999FECF1FBA92BD81BD20BD0FB671
:1033A000F894FA9AF99A0FBE01960895DC01CB01C0
:1033B000FC01F999FECF06C0F2BDE1BDF89A319645
:1033C00000B40D9241505040B8F70895F894FFCFE3
:00000001FF
