S0180000656C656374726F6E5F316D5F66756C6C2E73726563A1
S11300000C949C150C94AE150C94AE150C94AE1572
S11300100C94AE150C94AE150C94AE150C94AE1550
S11300200C94AE150C94AE150C94AE150C947C1C6B
S11300300C94AE150C94AE150C94AE150C94AE1530
S11300400C94AE150C94AE150C94AE150C94AE1520
S11300500C94AE150C94AE150C94AE150C94AE1510
S11300600C94AE150C94AE15409050024190480289
S11300704002449038023002280220024A901802BA
S11300804C9047904E9010024F904290539008022B
S113009000025790F801F001E801E001D801D00115
S11300A0C801C001B801B0016090A801A001980185
S11300B090016490880180017801700168016001F9
S11300C0580150016E9048016F9062904001789001
S11300D0380177903001280120011801100108012E
S11300E00001F800F000E80000000F110F050900FE
S11300F0000012151D15120000000E1107110E004C
S1130100000010101E111E00000011111D131D000F
S1130110000018080E090E000000151515151F0122
S11301200000151515151F00000011110F01010025
S11301300000121212121F010000040E150E04001A
S113014000001F040404040000001F111111110019
S1130150000011111F1111000000111B15111100D5
S113016000000709090911000000121418141200F4
S11301700A041113151911000000111315191100A7
S113018000000E1106110E00000015150E151500C5
S11301900000060A0A0A1F1100001E1010101000A9
S11301A000001E111E111E00030C101E11110E0062
S11301B00F11110F050911001215151D1515120047
S11301C00E11010701110E001010101E11111E0056
S11301D01111111D13131D001808080E09090E0032
S11301E01111111515151F011111111515151F00E8
S11301F01111110F010101001212121212121F012A
S1130200040E1515150E04001111110F01110E0025
S11302101F11111111111100070909090909110010
S113022015111113151911001111111315191100BC
S11302300E11010601110E001515150E15151500E8
S1130240060A0A0A0A0A1F111F10101010101000C3
S11302501F10101E11111E00B10CB50C38323005E0
S1130260C50CC10C3832300500007F02700200005A
S1130270C4CECF2E20CFD0CEC3D0C0CCCCDB00CECA
S1130280D1CD2E20CFD0CEC3D0C0CCCCDB00DDCBA3
S1130290C5CAD2D0CECD20312D4D00D7C0D1D2CEBB
S11302A0D2CDDBC920CFD0C8C1CED000205E2DC2B4
S11302B0CEC7C2D0C0D200D1D7C5D2D7C8CA20C8F1
S11302C0D1D2C5CA2100D1C1D0CED120CFD0CEC386
S11302D0D0C0CCCCDB00C7C0C2C5D0D8C5CDC0000F
S11302E0CFD0CEC3D0C0CCCCC000CFD0C8C3CED228
S11302F0CEC2D2C5D1DC2100D1D2C0D0D220CFD041
S1130300CEC3D0C0CCCCDB2C00361935193319310F
S1130310192C190000411938193519314BC00C003A
S113032000B10CB50CB80C4132B80C413200005489
S1130330273520A51BD9195E172314BD0F0D0D04F5
S11303400B3209E207BF05B30370274F20BD1BE53D
S11303501968173514D30F190D0C0B3E09EA07C998
S113036005C1037E275C20C91BEB196D173E14DE03
S11303700F1F0D100B4409EE07CE05C8039A27760C
S113038020E11BF71977175014F40F2B0D180B509D
S113039009F607D805D6030E2B45272620991BC935
S11303A0195A171614AD0F050DF50A2309D307B909
S11303B0050000900178002C016D003C0033006DB5
S11303C000030A040B191D0B9D0565054C0510055A
S11303D09F042004E603A9058D055C053C0503057F
S11303E0940412040000E803000090010000DC05FE
S11303F00000AC260000401F0000100E000038185A
S1130400000010270000F4010000A00F0000941168
S11304100000C6C8C7CD2E20DDCDC5D0C3C8DF00BF
S1130420FA00000092090000F0230000480D0000CB
S11304302C010000C057010048390100785D02001A
S113044040420F00F0490200E8030000F00A0000F7
S1130450FC1B01006C330100D00700001C250000C8
S1130460D4300000201C00008026040060EA000054
S1130470E8FD00000071020020BF0200C04B030031
S113048024F4000064000000E0AB0000D00101008F
S113049044CC0300D1C5C4C0D2C8C2CDDBC900D08E
S11304A0200000800C0000480D00006C330100ACFB
S11304B00D000070110100841C00006C070000E8AE
S11304C0030000FC1B0100C05701004839010078FB
S11304D05D020040420F008026040060EA0000E84C
S11304E0FD00000071020020BF0200C04B03002485
S11304F0F4000064000000E0AB0000D001010044FF
S1130500CC0300D2CECDC8C7C8D0D3DED9C8C90069
S1130510FC1B0100C05701006C330100A4B50000AE
S113052040420F00083900003421000094110000FB
S1130530282300004826000050140000C2DBCFC06E
S1130540C4C5CDC8C520C2CECBCED100A4B5000051
S113055040420F00C8000000800C0000CEC6C8D086
S1130560C5CDC8C50086010000FC1B0100C05701B1
S1130570006C330100D00700004839010040420FED
S113058000202F010008390000A4B50000CAC8D11A
S1130590CB2DD9C5CB2EC1C0CBC0CDD100E8CB006B
S11305A0000839000060100300C2DBC2C5C4C5CD19
S11305B0C8C520D2CECAD12E00CEC1D9C8C50037F5
S11305C0005C003C003C003C001B0D1815165C0749
S11305D01807AE064B06E405C8074C070E079F062E
S11305E03C060000D80E00006C070000800C0000E0
S11305F0FC1B0100C05701006C330100D007000050
S1130600A4B50000483901001C250000D4300000C6
S1130610201C0000841C000060EA0000E8FD0000CB
S113062024F4000028040100880D0100DC3E0300CE
S1130630601003007C15000000000000C6C5CD2E2C
S113064020D0C5C3D3CBDFD6C8DF00D80E0000E46A
S113065025000044160000EC130000FC1B0100C040
S11306605701006C330100D0070000A4B500004816
S11306703901001C250000D4300000201C00008437
S11306801C000060EA0000E8FD000024F4000028DB
S1130690040100880D0100DC3E030060100300CC5F
S11306A0D3C62E20D0C5C3D3CBDFD6C8DF00FC1BF6
S11306B00100C05701006C330100D0070000A4B54D
S11306C0000048390100785D02001C250000102755
S11306D0000070AD0000202F0100D4300000201C69
S11306E0000080260400C04B0300E8CB000008395A
S11306F0000028040100880D0100DC3E03006010A6
S1130700030044CC030028A00000841C0000CFD0C8
S1130710CED1D2C0D2C8D200FC1B0100C057010008
S11307206C33010040420F00D0070000A4B5000064
S113073048390100785D0200280A0000E028010021
S1130740202F010028040100880D0100CCC5CDD163
S1130750D2D02E20CDC0D0D3D8C5CD00FC1B0100F3
S11307606C330100A4B5000048390100785D020033
S11307701C25000070AD0000202F0100201C00008B
S11307808026040060EA0000E8FD00000071020019
S113079020BF0200C04B030020A1070024F4000086
S11307A0E8CB000028040100880D0100DC3E0300B2
S11307B0640000006010030030A7000044CC030074
S11307C0C40900006C010100DDCDC4CECCC5D2D07B
S11307D0C8D200CFCECBCEC2DBC520CFD0CEC1CBCA
S11307E02E004B00850078003C0010090A19DC0833
S11307F0AC08740800081C09D0089C0864080000B0
S1130800841C0000FC1B0100C05701006C33010074
S1130810A4B50000E8030000A00F0000D00700000A
S1130820C05D00001027000048390100785D020017
S11308301C25000070AD0000D4300000201C000016
S113084060EA0000E8FD00000071020024F40000EA
S113085008390000F049020084D80200A8610000B1
S1130860E0AB0000CFCED7C5D7CDC0DF20CDC5C407
S1130870CED1D200FC1B01006C330100D007000074
S1130880A4B5000048390100785D020070AD000095
S1130890202F01000045010080380100CACECBC8DA
S11308A0CAC820CFD0CED4C8CBC0CA00FA0000003A
S11308B00401000090010000EA010000AB03000005
S11308C0D0070000020800009E200000102700004E
S11308D0CFC8C5CBCECDC5D4D0C8D200FC1B010037
S11308E0C05701006C330100D0070000A4B500001C
S11308F048390100785D0200D0200000FC1B010093
S1130900C05701006C330100D0070000A4B50000FB
S113091048390100785D0200409C0000D6C8D1D25D
S1130920C8D200CFCED7CAC82C20CCCED7C5C22EB1
S1130930CF005C003C003C008500C8005C000D1545
S11309401509060DB40A500AF009BC099A095E0992
S1130950E80AA40A440AE009B2099209000018014D
S113096000004A0100002A03000098030000EE0280
S1130970000078000000F00A0000160D0000B82402
S11309800000342100002A120000DE2600000221AB
S11309900000C2C0D0C8CACEC70088130000241308
S11309A00000FC1B0100A4B5000010270000A00FEC
S11309B00000C3C8CFCED2CECDC8DF00580200009D
S11309C08025000064190000FC1B0100C0570100D1
S11309D06C330100A4B5000040420F00E80300009E
S11309E0C3C8CFC5D0D2CECDC8DF20D5D0CECD00A0
S11309F0FC1B0100C05701006C330100D00700004C
S1130A00A4B500001C25000070AD0000202F0100DB
S1130A10D4300000201C0000802604000071020075
S1130A2020BF0200C04B03002C010000F04902006B
S1130A3084D8020000450100D001010078050000BF
S1130A40D8590000D1D2C5CDCECAC0D0C4C8DF00A9
S1130A50FC1B0100C05701006C330100D0070000EB
S1130A60A4B500001C25000070AD0000202F01007B
S1130A70D4300000201C0000802604000071020015
S1130A8020BF0200C04B03002C010000F04902000B
S1130A9084D8020000450100D0010100780500005F
S1130AA0D8590000D1D2C5CDCECAC0D02E28C3D0CB
S1130AB0D3C4DC00FC1B0100C05701006C330100EF
S1130AC0D0070000A4B5000040420F0080260400B7
S1130AD00071020020BF0200C04B030020A10700E8
S1130AE0F049020078050000C0D2C5D0CED1CACBEF
S1130AF0C5D0CEC700D1C5D0C4D6C52C20D1CED147
S1130B00D3C4DB0020003C003C004B002E1818101E
S1130B10460CD90B6A0B220BFE0C390CCA0B620B68
S1130B200000E81C0000FC1B0100C05701006C33EE
S1130B300100D007000080A3040034210000282312
S1130B40000048260000DC1E000038180000B41421
S1130B500000E0150000181500007E1D00004E2561
S1130B600000CFCEC4C0C3D0C00078000000EA01AA
S1130B7000006400000040420F00D007000032195A
S1130B800000B61C00008025000050140000FA008C
S1130B90000014050000FC1B0100C05701006C3369
S1130BA00100A4B5000048390100785D02002C0161
S1130BB00000F00A00008026040060EA0000E8FD5E
S1130BC0000024F40000A8610000C2CED1CF2E2082
S1130BD0D1D3D1D2C0C2CEC200B0040000E81C0000
S1130BE000DC1E000078000000A0000000C8000027
S1130BF000090100002C01000098030000C003005C
S1130C0000CA0300006A180000321900005E1A00CE
S1130C1000B01D0000E21D00001C2500001027008C
S1130C2000F8110000E8030000A00F0000CC010050
S1130C3000841C000002210000CED1D2C5CED5CE46
S1130C40CDC4D0CEC70000190000781E00001027C4
S1130C500000DA1600009222000018150000C003FC
S1130C60000078000000A000000098030000321982
S1130C700000AC260000E01500006022000009011D
S1130C800000A8020000AB030000CA0300002A030E
S1130C900000F8110000F41A0000FA0000006801D6
S1130CA000007C01000086010000DC1E00000C0333
S1130CB00000E8030000F00A000040420F00785DE5
S1130CC00200C0570100483901006C330100FC1BCD
S1130CD00100A4B50000D0070000020300002C01AD
S1130CE000008002000080260400A8610000E8FDE6
S1130CF0000024F4000060EA0000B80B0000C0D03B
S1130D00D2D0C8D200D1D3D1D2C0C2DB004B003F75
S1130D10003C005500370028001013170E1B255DFA
S1130D200F050F9B0E530ED90D390D9D0F510FF763
S1130D300E8B0E450ECD0D000040420F0004D90469
S1130D4000A0D804003CD80400C05701006C330153
S1130D50005C250100FC1B0100100801000CF800D8
S1130D600024F40000E8CB0000A4B5000070AD003E
S1130D7000E0AB0000C0760000D039000008390064
S1130D8000F0050000E10500000C040000E8030089
S1130D90000F03000076020000FA0000005E1A0053
S1130DA000DC050000A60E0000D80E00000A0F00AB
S1130DB00002080000EA240000FE10000060220087
S1130DC0003818000076020000F6090000CBC8CCF9
S1130DD0D4CEC4D0C5CDC0C6002A030000982100DB
S1130DE00016260000460000005A000000FA000029
S1130DF000090100004A010000D4030000E01500CE
S1130E0000F41A000078000000680100007C010072
S1130E1000860100005C030000F023000080A304AE
S1130E20001C250000384A0000E0280100C05701DA
S1130E30006C330100FC1B0100A4B500008E03000C
S1130E4000F82A0000D2D0C0C2CCDB2C20D3D8C8F2
S1130E50C1DB0080A304001C250000C057010078FA
S1130E605D0200483901006C330100202F0100FCB1
S1130E701B0100EA010000DC3E030060100300884F
S1130E800D01002804010010270000C2CED1CFC0FC
S1130E90CBC5CDC8C520C1CECBDC0058020000169E
S1130EA0260000B1030000B6030000C00300005296
S1130EB0030000E8CB000008390000EA01000080CC
S1130EC0A30400C05701006C330100FC1B0100D0D7
S1130ED0070000E80300007602000044020000E876
S1130EE0FD000024F4000060EA0000AB0300008071
S1130EF0250000BC020000C3CECBCEC2CDC0DF2093
S1130F00C1CECBDC00FC1B0100C05701006C3301D7
S1130F1000A4B5000048390100785D02001C2500DA
S1130F200064000000202F01008026040060EA0015
S1130F3000E8FD00000071020020BF020028040147
S1130F4000F049020080A3040044CC0300384A00A6
S1130F5000C7D3C1CDC0DF20C1CECBDC00F41A0062
S1130F6000C21A0000B61C000066080000A81600A3
S1130F70008C0A00004C1D0000F81100000E1F0038
S1130F8000800C00004C040000881300007E040064
S1130F9000D007000096000000EA010000C2CED194
S1130FA0CFC0CB2E2620C4D0C5CDC0C600C1CECB69
S1130FB0DC2CC2CED1CFC0CBC5CDC8C50035003CDA
S1130FC0003C006D003C005C003C004B003C003FDA
S1130FD00046001C14180B180D1710181311971342
S1130FE03713C7128D121D12DE117A112C11BC1089
S1130FF060100C10071487132713B9127D121212F4
S1131000D6116C111C11AC1050100000FC1B010017
S1131010C05701006C330100D007000048390100BB
S1131020785D020070AD0000202F010080260400CE
S113103060EA0000E8FD00000071020024F40000F2
S113104028040100880D0100F04902000045010058
S1131050CFC0CDCAD0C5C0D2C8D220C2D2CED00053
S1131060FC1B0100C05701006C330100D0070000D5
S113107048390100785D02001C25000070AD0000B5
S1131080D4300000201C00008026040000710200FF
S113109020BF0200C04B0300F049020084D80200C4
S11310A0DC3E030000450100940B0100CAC8D1CB0B
S11310B0CED22EC6C5CB2ED1CECAC000FC1B010099
S11310C0C05701006C330100D0070000A4B5000034
S11310D048390100785D02001C25000070AD000055
S11310E0202F0100D4300000201C000080260400C2
S11310F020BF0200C04B030020A1070008390000F4
S113110084D8020000450100E0AB000044CC030099
S1131110C8AF00007094000000000000C3C0D1D22A
S1131120D0CECAC0D0C4C8C0CBDCCD00347F01004F
S1131130E835000078370000244500007C470000B3
S113114008520000B8560000045B000050AA0000DA
S113115098D0000088F400006C1A01002C460100AD
S1131160CC550100CCF907006CC50A00CAC8D1D21D
S1131170DB2C20CAC0D0C8C5D100FC1B0100C0575D
S113118001006C330100D00700001C250000D4309E
S11311900000201C0000DC3E030060100300C8AF08
S11311A00000409C00006C01010048390100785D9A
S11311B0020070AD0000802604000071020020BF10
S11311C00200C04B0300F049020084D8020000452D
S11311D00100940B0100C3C0D1D2D0C8D2004A018F
S11311E00000D4030000CE180000162600001A1DCB
S11311F00000A4B50000FC1B01006C330100483959
S1131200010000450100C0570100785D0200404222
S11312100F00D5CECBC5D6C8D1D2C8D200FC1B0195
S113122000C05701006C330100D0070000A4B500D2
S11312300048390100785D02001C25000070AD00F3
S113124000202F0100D4300000201C000080260460
S1131250000071020020BF0200C04B030020A10760
S1131260000839000084D8020000450100E0AB000A
S11312700044CC0300C8AF000070940000C2CED17B
S1131280CF2EC1D0DED8CD2ECFCECB2E00603B00EA
S1131290006086000024A9000058B1000094F20008
S11312A000785D0200C0570100FC1B01006C330193
S11312B000A4B5000020A10700C4C8C0D0C5DF2C1D
S11312C020CACECBC8D200E05A0100C0570100406A
S11312D04B0100784A01009C440100940B0100D8A2
S11312E0210100B81E01006C970100C07001007854
S11312F0310100DCE6000080BB00003CA50000FCDE
S11313008500006C840000C87D00000045010030A9
S1131310D90000A03B010098D00000B0B30000A0A9
S1131320A5000018600000DFC7C2C5CDCDC0DF2016
S1131330C1CECBC5C72E0014370000A0BE000048A4
S1131340520100D0B600007831010060030100F0C2
S1131350EB00000C4900001CD40000DC2B0200B0A0
S11313607B0100F82A0000F43300006C7E01009435
S1131370430000045B00008006010038C700009CA5
S1131380AE0000B8880000D5D0CECD2EC7C0C12E87
S1131390CAC8D8C5D7CD00D007000008390000E876
S11313A0CB0000FC1B01006C330100C0570100405E
S11313B0420F00A4B50000F04902000071020020B1
S11313C0BF0200C04B03008026040020A1070030A8
S11313D0A70000D0010100202F0100EA01000078DD
S11313E00000009600000064000000440200008633
S11313F00100007602000080380100E8030000DCF0
S1131400050000B0040000C2CED1CFC0CBC5CDC80A
S1131410C520C6CAD200CFD0CEC1CBC5CCDB20C636
S1131420CAD2003C0033004B003C003C006D003C41
S11314300055005000191D1014140B140E0FED1656
S113144072162A16D01577154615ED14AA146414CD
S11314505117E6166A162016C71572153D15E214C3
S1131460A0140000FC1B0100C05701006C330100F4
S1131470D007000048390100785D020070AD00001B
S1131480202F010080260400C04B030020A1070088
S11314906400000014050000103A0100403201000D
S11314A0D2CECDC7C8CBCBC8D200FC1B0100C057DD
S11314B001006C330100A4B50000785D020070AD3A
S11314C00000202F0100802604000071020020BFCC
S11314D00200E8CB0000083900006010030044CC8F
S11314E00300CFC0D0C0C4CECDD2C8D200B6030052
S11314F0003C0F00006E0F0000F72600007800008B
S113150000841C0000E0AB0000A4B5000070AD0036
S113151000785D0200C0570100483901006C3301B6
S113152000FC1B0100F00A0000020300002C010073
S113153000A8610000C0030000AB030000CBC0D0D2
S1131540C8CDC3C8D200CC10000030110000C003C5
S113155000001C2500000C03000048260000D007F2
S11315600000FA000000040100007C01000090016A
S11315700000CED2C8D200FC1B0100C05701006C91
S113158033010048390100785D0200D430000020A6
S11315901C0000E8CB000034210000282300004890
S11315A0260000DC1E00009821000038180000B45A
S11315B0140000F41A0000A8160000280A0000E82D
S11315C01C000044160000C3C0C9CCCED0C8D20051
S11315D0E0DD0000E0AB0000B8D30000D0CF000095
S11315E0945601005847010030240100E8CB000064
S11315F06823010020CB0000BC790100D42A01003B
S1131600001A04007C2A090034F0030050980300F7
S11316105C4608003045080094450800CC440800A6
S1131620CFCDC5C2CCCECDC8DF00B20C0000F811BE
S11316300000E21D000098210000F0230000780063
S11316400000841C0000C0570100FC1B0100AB0318
S11316500000A7030000B20C0000F8110000E21D16
S1131660000098210000F0230000C1D0CECDD5C8E1
S1131670D200A08C0000AC0D000098210000501492
S11316800000C422000008200000FC2100006C338C
S11316900100202F0100FC1B0100A4B5000030A7AD
S11316A00000D00101002C010000D8590000802660
S11316B00400C04B030020BF020000710200F04987
S11316C00200C05701000045010070AD000084D83D
S11316D00200D43000001C250000201C0000D007AC
S11316E0000078050000C0CDC3C8CDC000785D02FD
S11316F00048390100C05701006C330100202F015C
S113170000FC1B010070AD0000D007000030A700F2
S113171000D001010080260400A84F0300780500D2
S113172000148200004CCC0000002C01000833019E
S11317300084D8020078E60000880D0100B0300172
S1131740003C3B0100683C010048650200400D0379
S113175000C0C4C5CDCEC8C4DB00CBCED00032009F
S11317602E003C006D0029001E20140B244119B1E9
S11317701851181A188317B9193119A118461813D2
S113178018000046000000AA0000000401000098B0
S1131790030000AB030000E42500003421000050E6
S11317A01400002E22000028230000BE230000EABB
S11317B024000048260000785D0200483901006CCE
S11317C0330100FC1B0100F00A0000001900009620
S11317D00300002C14010040420F0020A1070080E8
S11317E02604006010030090530300403F03006090
S11317F0030100E02E0000D0070000C82C0100D037
S11318006501001CA200003C1D0100880D0100AB15
S1131810030000DDCAC7C5CCC000EA0100004E02C7
S113182000000203000098030000A703000020BF8B
S11318300200C05701006C330100FC1B0100E8CB1F
S1131840000008390000CAD0C0CFC8C2CDC8D6C075
S1131850003C54010084CB0000A85B0100C40301D8
S11318600044F700008CA00000201601003CBE00DC
S11318700050C40400B4C40400BC66000050270136
S11318800030430000C87D00001841010088A90011
S1131890002CC90000185A01000032000078310100
S11318A000C0CDD2C82DC0D1D2CCC0D2C8D7C5D1EA
S11318B00030A70000A4B50000D0070000AB03006F
S11318C0009600000064000000FC1B01007602008A
S11318D000E8030000F00A00002823000064000070
S11318E0003C54010084CB0000A85B0100C4030148
S11318F00044F700008CA00000201601003CBE004C
S11319000050C40400B4C40400BC660000502701A5
S11319100030430000C87D00001841010088A90080
S1131920002CC90000185A0100003200007831016F
S113193000C1D0CECDD5C8D220C0D1D2CCC0D22EF9
S113194000100E000002080000082000004E0C00E9
S1131950004E250000D0200000B61C0000A8160090
S113196000BE230000841C0000C6160000E2040030
S1131970004C1D000050190000A60E0000DA1600ED
S113198000441600007E0400001A1D0000E6140046
S113199000A406000070170000BE0A0000FC1B0132
S11319A000C05701006C330100A4B5000040420F91
S11319B00020A10700E8800000C0CDD2C8C0CBCB76
S11319C0C5D0C3C8D7C5D1CA00C0CBCBC5D0C3C846
S11319D0DF2C20C0D1D2CCC00050002C016D005CA3
S11319E00064003C000F040B0D0C17511B311BF558
S11319F01AB11A711A051A8D1B411B211BE51AA174
S1131A001A611A000000610D0028190A0000EE0294
S1131A1000B48B0100444201004820010054050138
S1131A20008C040100FC020100D0010100086B00DD
S1131A3000D4620000304300000429000030A700F5
S1131A4000202F0100A4B50000C05701006C330131
S1131A5000FC1B0100D063380280D54302C82E4825
S1131A6002C2C8D02EDDCFD8D22E2DC1C0D0D0C056
S1131A70003831000034E90000B4F50000680A01C0
S1131A8000349801004846030080450300E4450300
S1131A900040800D0060830D0043121F00058C017F
S1131AA000D6C8D2CECCC5C3C0CBCEC2C8D0D3D149
S1131AB0005008340032190000A0000000AA000001
S1131AC000B40000002A0300000000000000000031
S1131AD0000000000000000000C0030000E8030054
S1131AE000E2040000C8CCCCD3CDC8D2C5D220D1EA
S1131AF0D2C8CC2E00FC1B0100C05701006C33017E
S1131B0000D0070000A4B5000048390100785D0248
S1131B10006400000070AD0000202F0100F40100FB
S1131B2000CFD0CED1D2D3C4CDDBC520C7C0C12E07
S1131B300096000000D0070000EA01000030A70072
S1131B4000C0CDD2C8C1C0CAD22E20C3D0C8CFCF06
S1131B500004A6000014B4000064C8000024260198
S1131B60000C2A0100A8740100B081000034850033
S1131B700034B7000048BC00004CCC0000D8210160
S1131B80006C33010084480100445B0100C3D0C8E9
S1131B90CFCF2C20CED0C2C800C3D0C8CFCF2C20EA
S1131BA0CED0C2C80050006400140029004B004687
S1131BB000C8006D004200F00085004B000F0C4887
S1131BC0241011060B12050910DD1F9D1F721ED76C
S1131BD01D8C1D3E1D1A1DE11C911C721C441CFB16
S1131BE01B1920CD1F921F671ECC1D821D321D0D97
S1131BF01DD91C861C681C3B1C0000D0070000700B
S1131C001700001C250000D4300000E4570000B881
S1131C10A10000CCA60000A4B50000FC1B01006CD0
S1131C20330100C0570100203E4A0240FD4C02C06F
S1131C30A65002F5521D00C0750100CAC0CDC4C82B
S1131C40C4CEC700500203001CC8020018280100BB
S1131C503C22010044100100B0CC000018920000A6
S1131C606C8400007C600000C0D1CFC5D0C3C8CB59
S1131C70CB0050270100D007000050270100D007F7
S1131C80000050270100D3D0C5C0CFCBC0C7CCC003
S1131C900040DD0A00C027090020A10700288E03A8
S1131CA000F0490200C05701006C330100FC1B0125
S1131CB00020160100D001010060EA0000045B006E
S1131CC000983A0000286AFD01C0A4FD0150750186
S1131CD002A85F1900766A0100C3CECDCED0C5DF5D
S1131CE000007D00007C0F010078310100AC84010C
S1131CF0008480000074BD000040BF030280CC0655
S1131D000298B00A0258D4190036490100C3C0D061
S1131D10C4CDC5D0C5CBCBC5C70048EE0000500E1E
S1131D200100D07E010040C84002205C4502C0533F
S1131D304902D2D0C8D5CECCCECDC8C0C700F8A7F2
S1131D40000030F20000C0F300002048010074607D
S1131D500300D4C10500E0BF05005C6403006862B1
S1131D600300F86F010048520100F8F20000CCD8DB
S1131D70000098B7000050604302205C450278DC04
S1131D804902D5CBC0CCC8C4C8CEC7002048010086
S1131D90883F0100DC3101004C300100202F01009C
S1131DA0382B0100D42A01006823010054A100004B
S1131DB0F0A0000088FC5F02A0E063026872690280
S1131DC090237C02E0577F02B0C48302CACBC5C112
S1131DD0D1C8C5CBCBC000C0340B0058800400D0A0
S1131DE06C0400285604000CC00100C4B20100CCED
S1131DF0A00100D89E010034980100DE7A0100D4CD
S1131E005701000C570100E4510100F2430100A8FE
S1131E103801009834010018320100A63001000E88
S1131E20140100CE0D0100880D0100340C01003AAC
S1131E300B0100500901003E0701006003010090FE
S1131E40FB000048EE000010BD00003863000048AD
S1131E50A1EC01309FED01703BEE01B8FE0A024097
S1131E60F40F0250FD1402CCC8CACECFCBC0C7CCED
S1131E70C000D61F0000201C00004826000050149B
S1131E800000342100002E22000040420F00DC3EFE
S1131E9003006010030000710200785D0200F04945
S1131EA0020080380100202F0100FC1B0100880D76
S1131EB0010050C30000A4B50000B8400C00C0CE1F
S1131EC00200405E0200044F020040320100102173
S1131ED001004019010028040100BCE3000054D3B0
S1131EE0000024900000605400005C760000B08183
S1131EF000009885000018AB0000E0AB0000D0CFD4
S1131F00000004C00400ECF0090044100100A81013
S1131F1001008C1D01007421010030240100C82C33
S1131F200100C4540000F055000054560000F80BA2
S1131F30010030BA0100308202008487030050F1AE
S1131F400900C41C01001C380100103A0100745936
S1131F5000004CCC000024F400000CF800005847AA
S1131F60010094560100C41D0500B4270100542447
S1131F700000E8CB000060030100E41F0100D4A7C7
S1131F8001004CAD01001098020044290100006AD0
S1131F901800D2D3C1C5D0CAD3CBC5C70010AB0378
S1131FA000C4EA000030750000983A0000561D0095
S1131FB00032CD0000BE34030091D1200049A201BB
S1131FC00098F79002002E930260899602CCC8CA4A
S1131FD0CEC1C0CA2ED2D3C1C5D0CA2E00588004E7
S1131FE0002C4D04008C3D04007C4E0300C05701BE
S1131FF000601C0100641301007C0F010010080143
S113200000808900008C8700005E0F0100783D0489
S1132010005A130100544D0400C3C5CBC8CACEC135
S1132020C0CAD2C5D000C8CDD4C5CAD6C8C820D16C
S1132030CFC5D62E0035001600270039003C001805
S1132040003C003C00420028003C003F0078001C9B
S113205042261A143D1518122517130AC526AF2552
S1132060092593243C243B23DA226A2218227A216C
S11320701421BF2092203527B726A125FB248C24C8
S11320802F242E23CA2260220E2270210B21BA2073
S11320900000FC1B0100C05701006C330100A4B513
S11320A00000802604000071020020BF0200C04B23
S11320B0030020A10700F0490200C0CACDDD00FCE6
S11320C01B0100C05701006C330100D0070000A4BD
S11320D0B5000048390100785D02001C250000703D
S11320E0AD0000D4300000201C000060EA0000E8CD
S11320F0FD000024F4000084D802000045010030F3
S1132100A70000D001010020A10700CCC5CDC8CD97
S1132110C3C8D20064A36600B8C66200E8E419002C
S113212084A90E0068200E00C4A108008C9A010046
S1132130EC8A01004C620100685501009C2B0100EF
S113214004BF000008B60000D09D000084670000B2
S1132150F82A000094110000DBB61E007887010005
S113216078C41E00CC8701005EEB1E00158A0100B6
S1132170CFC0CFC8CBCBCECCC00020A10700D0E9C4
S11321800400A0D8040044CC03001457030084D8EE
S1132190020000710200785D0200F04902008C1711
S11321A00200746C0100AC6B0100E46A0100C057CA
S11321B0010048390100C4030100E8FD000044F7B0
S11321C0000024F4000040CE000070AD00008480C4
S11321D00000D47B0000A861000080570000D840B4
S11321E0000008390000D43000001C250000201C29
S11321F00000F00A0000D007000040420F0060EA2F
S11322000000601C0100FC1B01006C330100C3C50D
S1132210CFC0D2C8D2204300A4060000A000000012
S1132220AA000000AB0300007882000024A900008B
S11322309C2B0100745301003056010054BA000075
S113224038E00000C02501004C300100988D780270
S113225040D17D02001782020E601F00E48F01004E
S1132260C3C5CFC0D2C8D22042007882000024A9BE
S113227000009C2B0100745301003056010054BA35
S1132280000038E00000C02501004C300100A40625
S11322900000A0000000AA000000AB030000785D6D
S11322A00200BC0F020028680100C0570100483931
S11322B00100FC1B010084800000D47B00008057D7
S11322C00000F00A000078000000C3C5CFC0D2C8E7
S11322D0D220C2C8D0D3D1CD2E00400D030088EE49
S11322E00100B459010050590100EC58010088580C
S11322F0010024580100C05701005C570100F85642
S113230001009456010030560100CC550100404BA9
S1132310010048390100803801006C33010040326B
S11323200100FC1B0100ECDB0000ACEE0000D1D28C
S1132330D0C5CFD2CECACACECAC800F8B70E0044A0
S1132340450D00D8170B00E0EC0A00A0F703009C31
S1132350B50300F8E6020034B1010064A9010010DD
S11323609E0100289A0100888A01003C860100C46D
S113237080010000770100387601005C700100D80C
S11323806C01005059010088580100C0570100F841
S113239056010030560100084201006C3301000868
S11323A03301004032010004230100482001006091
S11323B01C0100FC1B010078180100F80B0100D877
S11323C008010048070100BCFC000090FB00002C41
S11323D0FB00009CF90000A8F7000000E10000ECFD
S11323E0DB0000CCD80000D8D60000B8D30000B879
S11323F0BA0000F4B0000050AA0000A0A500003C00
S1132400A500008CA00000148200005834000000D5
S11324103200007C633E00B4590100EC58010024F2
S11324205801005C57010094560100CC550100D1BD
S1132430D2C0D4C8CBCECACECACAC800A4B5000084
S1132440143700009C950000C8AF0000B4F50000EC
S1132450FC1B0100C05701006C330100D0070000D1
S113246048390100785D02008026040000710200F2
S113247020BF0200C04B0300F049020084D80200D0
S113248010270000204E0000A0860100C3C5D0CF55
S1132490C5D100201C0000D8A4000058E300006C43
S11324A0330100E08C0100F8630300F8BA0100383E
S11324B06300008C81010028810100608001009884
S11324C07F0100D07E0100787C0100B0620100E849
S11324D0610100F856010030560100045501003C2A
S11324E054010048520100E4510100805101001CD4
S11324F051010054500100E82F0100C4D0CEC6C6DB
S11325002E20C3D0C8C1CECA00601C0100C0570130
S1132510004032010040B50000185A0100B8A10083
S1132520003863000060860000CCAD0300647D00C9
S113253000CCD80000F86F0100A4830000382B0100
S1132540001CC80200B0CC0000189200003C22011C
S113255000903300004852010008E80000B83D0034
S11325600000C800005CF30000582E0100E08C015C
S113257000B8560000885E0000B4DC000040E700AC
S1132580005CF3000068230100746C010068B90169
S1132590002CC30100B408020004CC020028C706C2
S11325A000CFCBC5D1CD2E20C3D0C8C1CECA00F830
S11325B0630300405E0200785D020064C20100F81B
S11325C0BA0100E08C0100C0570100483901006CD9
S11325D033010040320100FC1B010058E30000A459
S11325E0B50000D8A4000038630000201C0000D00F
S11325F007000028C70600CCAD030004CC02001C71
S1132600C80200B40802002CC3010068B90100F834
S11326106F0100746C0100185A01004852010058FF
S11326202E0100382B0100042301003C220100602C
S11326301C01005CF3000008E8000040E70000B45F
S1132640DC0000CCD80000B0CC000000C800004082
S1132650B50000B8A100001892000060860000A434
S1132660830000647D0000885E0000B8560000B856
S11326703D0000903300007C410100E04101004432
S1132680420100A84201000C43010070430100D440
S11326904301004C810000408300004CE50000E051
S11326A0F60000C00C0100B4270100885801005056
S11326B05901007C5A0100C0CDD2C8C3D0C8C1CAD8
S11326C0CEC2C0DF00FC1B0100C05701006C330107
S11326D000D0070000A4B5000048390100785D026D
S11326E0001C25000070AD0000202F0100D4300034
S11326F000201C000060EA0000E8FD0000007102F8
S11327000024F4000028040100880D0100F04902AF
S11327100084D8020000450100E0AB000030A700AF
S113272000D0010100E0280100C8AF0000701101D1
S11327300050C30000C0CDD2C8C1C0CAD2C5D0C8E1
S1132740C0CBDCCD00C8CDD4C5CAD6C8C820CEC144
S1132750D9C8C500C8002A003C00F00096005C00FF
S1132760460055008500F000F000C8006D005C00D4
S113277006231405080D110E090505060B0DE62A9E
S11327804A2AEB29CD29A0295D291029CD289B2887
S11327907B2857282F28F827B827FE2AD62A3B2A31
S11327A0E129C029912954290529BF288F286B289C
S11327B047282428EC2700004016B102A053B90290
S11327C07031C0023824A102807DA502104EA902F6
S11327D06892B702F862BB0210400000F4B0000037
S11327E0B8D300005CF30000086D0800DDD5C8CD47
S11327F0CECACECACACEC700D0070000C02B000084
S1132800E02E0000F42D0100A84201000C43010059
S11328102C460100E0550600985182026072850240
S1132820707B8A02DDCDD2C5D0CEC1C8CEC700A090
S1132830BDD102DC4A0100AC5201000CF80000F0EA
S1132840EE2300FCC90100D8C8D1D2CED1CECCC071
S113285020D3D0C5C02E00A0A21A0284800000E4B8
S1132860160F00F0EE2300FCC90100D8C8D1D2CE67
S1132870D1CECCC020CCC0CDD12E0088A90000D0B0
S11328804C0100FD011E00777E0100E0B85A02D21F
S1132890CECAD1CECFCBC0C7CCC000E0CAD4028050
S11328A07DA502C08AA80290F7AC0210400000F493
S11328B0B00000B8D300005CF30000086D0800D13C
S11328C0C2C8CDCEC920D6C5CFC5CDDC00DC37000B
S11328D0006C6B0000100801000C2A0100F85C0079
S11328E00024220A00402E0A0010400000A84201E1
S11328F00038440100C8450100847A0100C4350150
S1132900000C000800CECFC8D1D2CED0D5CEC7009F
S113291020CD0800B4480800F89C0600EC4C0300E5
S11329204814030048330200D4430100303D010041
S1132930A4190100FC9E000078820000A8C9360298
S113294010C44202D05C4E026001830200F9860288
S1132950707B8A02CBDFCCC1CBC8CEC700F8520A49
S113296000402E0A0024220A0088090A00D84703DE
S113297000403F0300482D0300541203006010037D
S1132980006C0E0300400D0300A8D2020024710164
S113299000C3C5CBDCCCC8CDD2DB20CEC1D92E0040
S11329A0D014D702C05ED9022806DE02104000000F
S11329B0F4B00000B8D300005CF30000086D080018
S11329C0C1DBD7C8C920D6C5CFC5CDDC0010D469BA
S11329D002008F6E0238507002E8396802102771C5
S11329E002C0D1CAC0D0C8C4CEC70088520200D425
S11329F04301000C43010094240100F01D01005424
S1132A00EC0000BC79010074210100984D0100B074
S1132A10CC000030430000F86F0100D8A40000444B
S1132A20F700008CA00000F0EB0000DCE6000028BA
S1132A304A0600D827000060860000C0CDD2C8CF67
S1132A40C0D0C0C7C8D22E20460040420F0020A1EB
S1132A50070070BB06008026040080A9030000392B
S1132A60030020D80200785D020040130200C05722
S1132A700100984D010080380100403201005C25BE
S1132A800100F01D0100601C010020160100C00CB3
S1132A9001004CFE000090FB0000B0CC0000A4B587
S1132AA00000A8AC0000D8A4000078820000C05D3B
S1132AB00000603B000000320000D4300000E02E33
S1132AC00000C02B000080250000201C000000191D
S1132AD00000D0070000C0CDD2C8CFC0D0C0C72EE0
S1132AE020CEC1D92E00C0C62D0000710200C0C680
S1132AF02D0000710200C0C62D0000710200C0CD7F
S1132B00D2C8CFC0D0C0C72ECACBC0D0CA00C0CD97
S1132B10C8D2CFC0D0C0C7C8D2C0D0CD2E0000000C
S1132B205A1053115A1272139A14D415201780187C
S1132B30091AE01A221DDE1E11241FBECFEFD8E0B1
S1132B40DEBFCDBF21E0A0E0B1E001C01D92A03501
S1132B50B207E1F70E9445190C948C1E0C940000F6
S1132B60CF938FE40E948A1C8091C00087FFFCCF22
S1132B700E947F1CC82F8FE40E948A1C8091C00091
S1132B8087FFFCCF0E947F1CC295C07F8C2BCF9106
S1132B900895CF93DF93C0E0D0E0CE010E945A1E87
S1132BA0882351F094E0899FC00DD11D11246396B0
S1132BB0CF3F83E0D80788F3CE01DF91CF9108950A
S1132BC0EF92FF920F931F93CF93DF939EE0E92E32
S1132BD091E0F92EC0E0D0E000E010E0C8010E94CE
S1132BE05A1E882399F0219698012F5F3F4FF701D1
S1132BF0219331937F01F4E08F9F000D111D112467
S1132C000D5E1F4F0F3F83E0180740F3CC0FDD1F0D
S1132C10C25FDE4F198218828EE091E0DF91CF917E
S1132C201F910F91FF90EF9008950F931F93CF93EF
S1132C30DF93082F10E0C0E0D0E0CE010E945A1EBE
S1132C40882389F0101769F01F5F94E0899FC00DF5
S1132C50D11D11246396CF3F83E0D80770F380E041
S1132C6002C0CE0101C090E0DF91CF911F910F917E
S1132C7008950E941516019608950E94151640960F
S1132C800C94681E0E9415160C945A1E0E94151668
S1132C90439608950E94151642960C945A1ECF939B
S1132CA0DF930E941516EC016296CE010E945A1E13
S1132CB081118150682FCE01DF91CF910C946E1E4B
S1132CC0AF92BF92CF92DF92EF92FF920F931F9336
S1132CD0CF93DF930E94C915EC010E94911C8FE4ED
S1132CE00E948A1C2FEF89E698E121508040904091
S1132CF0E1F700C000008091C00087FF8CC00E94F3
S1132D007F1C8F34910509F086C00E94B01583356D
S1132D1009F07AC00E94B015E82E84E0E89E900184
S1132D2011242E5E3F4F8FEF93E08C1B9D0B2817D1
S1132D30390724F082E50E948A1C6DC08FE40E944A
S1132D408A1C8E010F5F1F4F6E2DCE010E946E1ED6
S1132D506E0190E1C90ED11C0E94B01558012FEFED
S1132D60A21AB20A682FC8010E946E1E8501AC1413
S1132D70BD0491F70E94B015682FC5010E946E1E14
S1132D800E94B015682FCE0141960E946E1E0E94CB
S1132D90B0158E010D5E1F4F682FCE0142960E9422
S1132DA06E1EE801F12CFE14F1F00E94B015682F9C
S1132DB0CE010E946E1E0E94B015682FCE010196AE
S1132DC00E946E1E0E94B015682FCE0102960E94CA
S1132DD06E1E0E94B015682FCE01039624960E94A1
S1132DE06E1EF394E0CFE80184E0F89EC00DD11D7F
S1132DF011240E94B015682FCE010E946E1E0E94FD
S1132E00B015682FCE0105C0833429F460E080E05A
S1132E1090E00E946E1EDF91CF911F910F91FF9061
S1132E20EF90DF90CF90BF90AF900C94A11C3A9894
S1132E303B983998429A439A419A089586B1982FBB
S1132E40947082FF02C080E018C080910201882340
S1132E50D1F380910101339B07C08F5F823039F435
S1132E601092010182E009C081508E3F19F08093D5
S1132E700101E9CF1092010181E090930201909148
S1132E800001319B0AC0993C20F4963018F084E08C
S1132E9001C085E01092000108959F5F90930001A6
S1132EA0089586B18695817091E08927089580916F
S1132EB0BC0087FFFCCF089584EA8093BC000C9487
S1132EC057178093BB0084E88093BC000C94571779
S1132ED0CF93C82F0E945C178EE40E9461178C2F39
S1132EE088600E94611784E98093BC00CF910895A3
S1132EF02FEF89E698E1215080409040E1F700C02F
S1132F00000087B1806387B988E48093B80008958E
S1132F10CF93C82F0E9468178C2F84600E94681773
S1132F2085E08A95F1F700008C2F8B7F0E9468174B
S1132F3085E08A95F1F70000CF910895CF93C82FCB
S1132F40807F81600E94881720E1C29FC001112404
S1132F5081600E94881787EC90E00197F1F700C028
S1132F600000809104018F5F80930401CF91089544
S1132F70CF93C82F807F0E9488178C2F8295807FE3
S1132F800E94881787EC90E00197F1F700C00000D9
S1132F90CF9108950E9478172FEF89EF90E0215088
S1132FA080409040E1F700C0000080E30E94881751
S1132FB08FE19EE40197F1F700C0000080E30E94D6
S1132FC0881787E592E00197F1F700C0000080E3DD
S1132FD00E94881787E592E00197F1F700C000008E
S1132FE080E20E94881788E20E94B8178CE00C9453
S1132FF0B81781E00E94B8178FE39FE10197F1F7BA
S113300000C0000010920301109204010895CF93B0
S1133010DF93C82FCF70D62FD17060FD02C080E03F
S113302001C080E48C0F80680E94B817C09304012B
S1133030D0930301DF91CF9108950F931F93CF9302
S1133040DF938B01877028E0829FC0011124806484
S11330500E94B817C0E0D0E0F801EC0FFD1F849186
S11330600E949E172196C830D105B1F780910401C2
S113307088508093040160910301DF91CF911F91E7
S11330800F910C940718CF93DF93EC016330F9F0A0
S113309028F46130B1F1623039F13DC0643051F04F
S11330A06530C9F560E177E20E94631D80E3860F15
S11330B00E949E17CE0168EE73E00E94631DCB014F
S11330C06AE070E00E94631D805D0E949E17CE013D
S11330D064E670E00E94631DCB016AE070E00E9428
S11330E0631D805D0E949E172AE030E0CE01B90185
S11330F00E94631DCB01B9010E94631D805D0E9483
S11331009E17CE016AE070E00E94631D805DDF912E
S1133110CF910C949E17DF91CF910895CF93DF93B5
S1133120EC01662359F060E17EE00E94631DCB014F
S113313062E00E9443188AE30E949E172CE330E069
S1133140CE01B9010E94631DEC01CB01B9010E94BB
S1133150631D62E00E9443188AE30E949E1762E0A6
S1133160CE01DF91CF910C944318E6E0F1E0178291
S11331701682158214821382128211821082109296
S113318005010C94F917982F883AC1F1883BC1F1D5
S1133190803C10F4892F15C0E82FF0E0EE0FFF1FDC
S11331A0E851F14065917491611580E9780718F050
S11331B081E0860F06C0E6E0F1E080E02191921301
S11331C002C00C949E178F5F8830C1F7809105016F
S11331D0E82FF0E0EA5FFE4F90830E941D18809173
S11331E0050191E0980F909305010E949E1780912C
S11331F00501883038F010920501089595E4CACF8E
S113320095E6C8CF0895CF93DF93EC018991882385
S113321019F00E94C318FACFDF91CF910895CF938C
S1133220DF93FC018491EF012196882321F00E9411
S1133230C318FE01F7CFDF91CF9108950F931F9329
S1133240CF93C0E1C15059F08C010F5F1F4F0E9412
S11332505A1E882321F00E94C318C801F3CFCF91CE
S11332601F910F9108950E94F9178BE992E00E9433
S11332700F1961E080E00E9407188EE892E00E9436
S11332800F1988E592E00C942D1D0E9460160E948F
S1133290CA170E94331962E08AE692E00E94E31999
S11332A0882319F0813009F12DC062E087E993E0A9
S11332B00E94E319C82F8F3F89F0E82FF0E0EE0F4A
S11332C0FF1FE358FC4F8591949162E00E94E3193B
S11332D08F3F21F042E0682F8C2F11C064EF71E022
S11332E080E793E00E941B1DD6CF0E94E01563E0A7
S11332F00E94E3198F3F91F343E0682F80E00E941E
S11333008E1BC9CF64EF71E08CED90E00E941B1D11
S11333102FEF89E698E1215080409040E1F700C00A
S11333200000B9CFEF92FF920F931F93CF93DF93D7
S11333307C01C62F042F0E94B518D0E010E0612F45
S113334081E00E940718023081F00330E1F001307F
S113335029F5FE01EE0FFF1FEE0DFF1D8081918107
S1133360009761F00E94031919C0FE01EE0FFF1FC0
S1133370EE0DFF1D85919491009711F48CEA92E073
S11333800E940F190BC0FE01EE0FFF1FEE0DFF1D73
S113339080819181009791F30E941E191F5F2196ED
S11333A0123069F6DF91CF911F910F91FF90EF904A
S11333B00895CF93C62F682F80E00E9407188C2FA2
S11333C0CF910C949E17CF92DF92EF92FF920F93BE
S11333D01F93CF93DF9310E0623059F4FC01E10FA7
S11333E0F11DE10FF11D25913491232B69F01F5F2D
S11333F0F5CFFC01E10FF11DE10FF11D20813181B9
S1133400232B11F01F5FF5CF112309F48AC0E62E98
S1133410F92E082F0E9417174E2D60E0802F9F2D44
S11334200E949219C0E0D0E0C12ED12C8FE19EE41D
S11334300197F1F700C000000E941E17823089F046
S11334408430E1F0813071F560E570E08CED90E05E
S11334500E941B1D60E28C2F8D1B0E94D919CF5F27
S113346021C060E570E08CED90E00E941B1D60E2DD
S11334708C2F8D1B0E94D919C15014C060E570E0D7
S11334808CED90E00E941B1D60E48C2F8D1B0E942C
S1133490D9198C2F0C2E000C990B8C159D0509F055
S11334A041C03FC08C2F0C2E000C990BC816D906B6
S11334B06CF44E2D60E0802F9F2D0E9492196EE3D4
S11334C080E00E94D919C0E0D0E0B0CFC7FF04C0AB
S11334D0C12FDFEFD10F09C02D2F30E0A9014E5FBE
S11334E05F4F8417950751F4DF5F4E2D6D2F802FAA
S11334F09F2D0E9492196EE381E010C082179307FA
S113350054F4D1504E2D6D2F802F9F2D0E9492196F
S11335106EE380E003C06EE38C2F8D1B0E94D919EB
S113352085CFCFEF8C2FDF91CF911F910F91FF901B
S1133530EF90DF90CF9008950F931F93CF93DF9375
S11335408C01EB0161E080E00E94071861E0CE018C
S1133550801B910B0E948E1861E089E00E9407187D
S11335609801A4E6B0E00E94B81D9E0140E050E03E
S11335700E94771D62E0C9010E94431885E2DF9131
S1133580CF911F910F910C949E171F93CF93DF93AC
S1133590EC01162F0E94B51888EF92E00E940F19D3
S11335A061E080E00E9407188AEE92E00E940F1901
S11335B081E293E00E942D1D0E94B518CE011230C5
S11335C019F40E940F1902C00E941E1985E193E0AC
S11335D0DF91CF911F910C942D1D2FEF89E698E177
S11335E0215080409040E1F700C000000E94B518CF
S11335F080EE92E00E940F1961E080E00E940718BB
S113360086ED92E00E940F1985E193E00C942D1D44
S11336100E94B51886EC92E00E940F1985E193E0B0
S11336200C942D1D0E94B51887EB92E00E940F198F
S113363089E093E00C942D1D80EC8AB91BB8E0E07E
S1133640F2E080E48193E03892E0F907D9F780E86A
S11336508193E11593E0F907D9F70895AF92BF92EA
S1133660CF92DF92EF92FF920F931F9320E030E00E
S113367040E052E30E94C71D3E504A4F554D6E4FE5
S11336807F4F8F4F9F4FA12CE4EEBE2EFBE0CF2E39
S1133690A4E5DA2EB2E0EB2EF12C00E010E00E945B
S11336A0F41DB901CA01611571058105910519F46B
S11336B01092000203C020E4209300022DE0209326
S11336C0810023E234EF309389002093880022E0C4
S11336D020936F00109285001092840078941F91BB
S11336E00F91FF90EF90DF90CF90BF90AF9008952F
S11336F0F89410926F00109285001092840010923A
S113370081001BB80895F2E0EE2722273327260F05
S1133710371FE81F40814BB9FACF08954F925F924B
S11337206F927F928F929F92AF92BF92CF92DF92CD
S1133730EF92FF920F931F93CF93DF93162F442E94
S113374022E0421330C070E0AB01440F551F282F14
S113375030E0220F331FF901ED59FC4F859194910C
S1133760FA01E80FF91FC591D491F901E15DFC4F0D
S113377085919491FA01E80FF91F65907490F9010D
S1133780E75BFC4F85919491FB01E80FF91F54907E
S113379023583C4FF90185919491FA01E80FF91FE0
S11337A0859194912BC0862F0E944A16811112C0D4
S11337B0DF91CF911F910F91FF90EF90DF90CF9009
S11337C0BF90AF909F908F907F906F905F904F903D
S11337D00C94121B8D3F18F4812F0E944F16812FD9
S11337E00E944616EC01812F0E943D163C01812F58
S11337F00E944216582E812F0E9439162CEF622205
S1133800569C6001579CD00C1124642D0E94C51A4B
S1133810B60180E090E00E949C1A0E941C1B5A94FE
S113382000E010E09FEF591609F452C0852D90E096
S113383022E042120FC0FC01EE0FFF1FEE0FFF1F2C
S1133840EC0FFD1F4591559165917491342F252FEF
S1133850CB010AC0880F991F880F991F8C0F9D1FD9
S11338600E94621E362F272F632F722F0E942E1B59
S11338704B015C017301E114F10431F1C501B401A0
S11338800E94831B0E9451178823A1F00E94781B79
S1133890DF91CF911F910F91FF90EF90DF90CF9028
S11338A0BF90AF909F908F907F906F905F904F905C
S11338B00C94081B84E0E81AF1080C5F1F4FB60152
S11338C0C8010E949C1AD7CF0E94781B5A94AACF91
S11338D00E94781BDF91CF911F910F91FF90EF9081
S11338E0DF90CF90BF90AF909F908F907F906F901C
S11338F05F904F900C94ED1A9F919F911895809131
S1133900C00087FF04C08091C60090E008958FEF47
S11339109FEF08959091C00095FFFCCF8093C6005F
S113392008951092C50080E18093C400E0ECF0E0BB
S1133930808182608083E1ECF0E080818861808313
S113394008951092C100F89408959C0140E050E05D
S113395060E072E18AE790E00E94991D213081E0E5
S11339603807410551050CF44DC0F3E056954795D1
S113397037952795FA95D1F7213081E0380741052D
S1133980510508F441C0E2E05695479537952795CF
S1133990EA95D1F7213081E0380741055105B0F1AE
S11339A05695479537952795213081E0380741058D
S11339B0510570F15695479537952795213081E04B
S11339C038074105510530F15695479537952795A8
S11339D0213081E038074105510548F082E05695D1
S11339E04795379527958A95D1F787E001C086E0FA
S11339F0239A21502093B30092E49093B0008093D3
S1133A00B100089581E0F4CF82E0F2CF83E0F0CFFB
S1133A1084E0EECF85E0ECCF1092B0002B980895AF
S1133A20009741F0EFE9FFE03197F1F700C00000A3
S1133A300197F6CF0895CF93DF93EB01009711F030
S1133A400E94A51CCE010E94101D0E940C1D85E041
S1133A5090E0DF91CF910C94101D1F93CF93DF93CF
S1133A601AE0FC0125913491EC01229621153105CF
S1133A7031F1F901EF70FF27EE0FFF1FE25EF44D05
S1133A8085919491A901440F452F441F550B5195DD
S1133A90149FB001159F700D1124E4E0369527950D
S1133AA0EA95E1F7209530952770332702C0969563
S1133AB087952A95E2F70E941B1DCE01D2CFDF9194
S1133AC0CF911F910895AA1BBB1B51E107C0AA1FE8
S1133AD0BB1FA617B70710F0A61BB70B881F991FAB
S1133AE05A95A9F780959095BC01CD010895A1E25E
S1133AF01A2EAA1BBB1BFD010DC0AA1FBB1FEE1F64
S1133B00FF1FA217B307E407F50720F0A21BB30BAE
S1133B10E40BF50B661F771F881F991F1A9469F72A
S1133B2060957095809590959B01AC01BD01CF0186
S1133B300895052E97FB1EF400940E94B01D57FDB6
S1133B4007D00E94771D07FC03D04EF40C94B01DDF
S1133B5050954095309521953F4F4F4F5F4F0895B5
S1133B6090958095709561957F4F8F4F9F4F0895E5
S1133B70A29FB001B39FC001A39F700D811D1124AA
S1133B80911DB29F700D811D1124911D0895E8941B
S1133B90DF93CF93FC01DB010E94B81D7F936F93E9
S1133BA0E9019A01AC01BF93AF933F932F93DF01D7
S1133BB00E94B81D26F46C1B7D0B820B930B9E0197
S1133BC0EB01FC010E94511EAF91BF912F913F91D7
S1133BD00E94511EBE01CF01F9012F913F91CF9157
S1133BE0DF910895689401C0E8948F929F92CF93D7
S1133BF0DF930E94001EDF91CF919F908F900895D4
S1133C0088249924F401E401B0E49F93AA279A1527
S1133C108B049C04ED05FE05CF05D007A10798F49D
S1133C20AD2FDC2FCF2FFE2FE92D982C892E982F26
S1133C30872F762F652F542F432F322F2227B850EA
S1133C4031F7BF9127C01B2EBF91BB27220F331F13
S1133C50441F551F661F771F881F991F881C991CB6
S1133C60EE1FFF1FCC1FDD1FAA1FBB1F8A149B045E
S1133C70EC05FD05CE05DF05A007B10748F08A185D
S1133C809B08EC09FD09CE09DF09A00BB10B2160EB
S1133C901A94E1F62EF49401AF01BE01CD01000C9B
S1133CA008950E94B81D460F571FC81FD91F08F456
S1133CB031960895F999FECF92BD81BDF89A99275E
S1133CC080B50895A6E1B0E044E050E00C947E1E77
S1133CD0A8E1B0E042E050E00C947E1E262FF99952
S1133CE0FECF1FBA92BD81BD20BD0FB6F894FA9ADB
S1133CF0F99A0FBE01960895DC01CB01FC01F999F4
S1133D00FECF06C0F2BDE1BDF89A319600B40D9223
S10F3D1041505040B8F70895F894FFCFDC
S9030000FC
